{
  "_format": "hh-sol-artifact-1",
  "contractName": "Factory",
  "sourceName": "contracts/Factory.sol",
  "abi": [
    {
      "inputs": [
        {
          "internalType": "contract NFTCollection",
          "name": "_initialCollection",
          "type": "address"
        }
      ],
      "stateMutability": "nonpayable",
      "type": "constructor"
    },
    {
      "anonymous": false,
      "inputs": [
        {
          "indexed": false,
          "internalType": "string",
          "name": "_name",
          "type": "string"
        },
        {
          "indexed": false,
          "internalType": "string",
          "name": "_symbol",
          "type": "string"
        },
        {
          "indexed": false,
          "internalType": "address",
          "name": "_addr",
          "type": "address"
        }
      ],
      "name": "CollectionAdded",
      "type": "event"
    },
    {
      "anonymous": false,
      "inputs": [
        {
          "indexed": true,
          "internalType": "address",
          "name": "previousOwner",
          "type": "address"
        },
        {
          "indexed": true,
          "internalType": "address",
          "name": "newOwner",
          "type": "address"
        }
      ],
      "name": "OwnershipTransferred",
      "type": "event"
    },
    {
      "inputs": [
        {
          "internalType": "uint256",
          "name": "",
          "type": "uint256"
        }
      ],
      "name": "NFTCollectionArray",
      "outputs": [
        {
          "internalType": "contract NFTCollection",
          "name": "",
          "type": "address"
        }
      ],
      "stateMutability": "view",
      "type": "function"
    },
    {
      "inputs": [
        {
          "internalType": "string",
          "name": "_name",
          "type": "string"
        },
        {
          "internalType": "string",
          "name": "_symbol",
          "type": "string"
        }
      ],
      "name": "createCollection",
      "outputs": [],
      "stateMutability": "nonpayable",
      "type": "function"
    },
    {
      "inputs": [],
      "name": "owner",
      "outputs": [
        {
          "internalType": "address",
          "name": "",
          "type": "address"
        }
      ],
      "stateMutability": "view",
      "type": "function"
    },
    {
      "inputs": [],
      "name": "renounceOwnership",
      "outputs": [],
      "stateMutability": "nonpayable",
      "type": "function"
    },
    {
      "inputs": [
        {
          "internalType": "address",
          "name": "newOwner",
          "type": "address"
        }
      ],
      "name": "transferOwnership",
      "outputs": [],
      "stateMutability": "nonpayable",
      "type": "function"
    }
  ],
  "bytecode": "0x60806040523480156200001157600080fd5b506040516200470438038062004704833981810160405281019062000037919062000343565b620000576200004b620001ea60201b60201c565b620001f260201b60201c565b6001819080600181540180825580915050600190039060005260206000200160009091909190916101000a81548173ffffffffffffffffffffffffffffffffffffffff021916908373ffffffffffffffffffffffffffffffffffffffff1602179055507f984e55572a53408de7d3d94377bc8f6cf5aefba9fc83a2c4426b9d2d814017df8173ffffffffffffffffffffffffffffffffffffffff166306fdde036040518163ffffffff1660e01b8152600401600060405180830381865afa15801562000127573d6000803e3d6000fd5b505050506040513d6000823e3d601f19601f82011682018060405250810190620001529190620004f4565b8273ffffffffffffffffffffffffffffffffffffffff166395d89b416040518163ffffffff1660e01b8152600401600060405180830381865afa1580156200019e573d6000803e3d6000fd5b505050506040513d6000823e3d601f19601f82011682018060405250810190620001c99190620004f4565b83604051620001db93929190620005b3565b60405180910390a150620005fe565b600033905090565b60008060009054906101000a900473ffffffffffffffffffffffffffffffffffffffff169050816000806101000a81548173ffffffffffffffffffffffffffffffffffffffff021916908373ffffffffffffffffffffffffffffffffffffffff1602179055508173ffffffffffffffffffffffffffffffffffffffff168173ffffffffffffffffffffffffffffffffffffffff167f8be0079c531659141344cd1fd0a4f28419497f9722a3daafe3b4186f6b6457e060405160405180910390a35050565b6000604051905090565b600080fd5b600080fd5b600073ffffffffffffffffffffffffffffffffffffffff82169050919050565b6000620002f782620002ca565b9050919050565b60006200030b82620002ea565b9050919050565b6200031d81620002fe565b81146200032957600080fd5b50565b6000815190506200033d8162000312565b92915050565b6000602082840312156200035c576200035b620002c0565b5b60006200036c848285016200032c565b91505092915050565b600080fd5b600080fd5b6000601f19601f8301169050919050565b7f4e487b7100000000000000000000000000000000000000000000000000000000600052604160045260246000fd5b620003ca826200037f565b810181811067ffffffffffffffff82111715620003ec57620003eb62000390565b5b80604052505050565b600062000401620002b6565b90506200040f8282620003bf565b919050565b600067ffffffffffffffff82111562000432576200043162000390565b5b6200043d826200037f565b9050602081019050919050565b60005b838110156200046a5780820151818401526020810190506200044d565b60008484015250505050565b60006200048d620004878462000414565b620003f5565b905082815260208101848484011115620004ac57620004ab6200037a565b5b620004b98482856200044a565b509392505050565b600082601f830112620004d957620004d862000375565b5b8151620004eb84826020860162000476565b91505092915050565b6000602082840312156200050d576200050c620002c0565b5b600082015167ffffffffffffffff8111156200052e576200052d620002c5565b5b6200053c84828501620004c1565b91505092915050565b600081519050919050565b600082825260208201905092915050565b60006200056e8262000545565b6200057a818562000550565b93506200058c8185602086016200044a565b62000597816200037f565b840191505092915050565b620005ad81620002ea565b82525050565b60006060820190508181036000830152620005cf818662000561565b90508181036020830152620005e5818562000561565b9050620005f66040830184620005a2565b949350505050565b6140f6806200060e6000396000f3fe60806040523480156200001157600080fd5b50600436106200005e5760003560e01c8063176b9b751462000063578063715018a614620000835780638da5cb5b146200008f578063a38b029814620000b1578063f2fde38b14620000e7575b600080fd5b6200008160048036038101906200007b9190620004e1565b62000107565b005b6200008d620001ff565b005b6200009962000217565b604051620000a89190620005b4565b60405180910390f35b620000cf6004803603810190620000c991906200060c565b62000240565b604051620000de9190620006a9565b60405180910390f35b620001056004803603810190620000ff9190620006f7565b62000280565b005b620001116200030a565b60008484848460405162000125906200045b565b6200013494939291906200078d565b604051809103906000f08015801562000151573d6000803e3d6000fd5b5090506001819080600181540180825580915050600190039060005260206000200160009091909190916101000a81548173ffffffffffffffffffffffffffffffffffffffff021916908373ffffffffffffffffffffffffffffffffffffffff1602179055507f984e55572a53408de7d3d94377bc8f6cf5aefba9fc83a2c4426b9d2d814017df8585858585604051620001f0959493929190620007cc565b60405180910390a15050505050565b620002096200030a565b6200021560006200038f565b565b60008060009054906101000a900473ffffffffffffffffffffffffffffffffffffffff16905090565b600181815481106200025157600080fd5b906000526020600020016000915054906101000a900473ffffffffffffffffffffffffffffffffffffffff1681565b6200028a6200030a565b600073ffffffffffffffffffffffffffffffffffffffff168173ffffffffffffffffffffffffffffffffffffffff1603620002fc576040517f08c379a0000000000000000000000000000000000000000000000000000000008152600401620002f39062000891565b60405180910390fd5b62000307816200038f565b50565b6200031462000453565b73ffffffffffffffffffffffffffffffffffffffff166200033462000217565b73ffffffffffffffffffffffffffffffffffffffff16146200038d576040517f08c379a0000000000000000000000000000000000000000000000000000000008152600401620003849062000903565b60405180910390fd5b565b60008060009054906101000a900473ffffffffffffffffffffffffffffffffffffffff169050816000806101000a81548173ffffffffffffffffffffffffffffffffffffffff021916908373ffffffffffffffffffffffffffffffffffffffff1602179055508173ffffffffffffffffffffffffffffffffffffffff168173ffffffffffffffffffffffffffffffffffffffff167f8be0079c531659141344cd1fd0a4f28419497f9722a3daafe3b4186f6b6457e060405160405180910390a35050565b600033905090565b61379b806200092683390190565b600080fd5b600080fd5b600080fd5b600080fd5b600080fd5b60008083601f8401126200049b576200049a62000473565b5b8235905067ffffffffffffffff811115620004bb57620004ba62000478565b5b602083019150836001820283011115620004da57620004d96200047d565b5b9250929050565b60008060008060408587031215620004fe57620004fd62000469565b5b600085013567ffffffffffffffff8111156200051f576200051e6200046e565b5b6200052d8782880162000482565b9450945050602085013567ffffffffffffffff8111156200055357620005526200046e565b5b620005618782880162000482565b925092505092959194509250565b600073ffffffffffffffffffffffffffffffffffffffff82169050919050565b60006200059c826200056f565b9050919050565b620005ae816200058f565b82525050565b6000602082019050620005cb6000830184620005a3565b92915050565b6000819050919050565b620005e681620005d1565b8114620005f257600080fd5b50565b6000813590506200060681620005db565b92915050565b60006020828403121562000625576200062462000469565b5b60006200063584828501620005f5565b91505092915050565b6000819050919050565b600062000669620006636200065d846200056f565b6200063e565b6200056f565b9050919050565b60006200067d8262000648565b9050919050565b6000620006918262000670565b9050919050565b620006a38162000684565b82525050565b6000602082019050620006c0600083018462000698565b92915050565b620006d1816200058f565b8114620006dd57600080fd5b50565b600081359050620006f181620006c6565b92915050565b60006020828403121562000710576200070f62000469565b5b60006200072084828501620006e0565b91505092915050565b600082825260208201905092915050565b82818337600083830152505050565b6000601f19601f8301169050919050565b600062000768838562000729565b9350620007778385846200073a565b620007828362000749565b840190509392505050565b60006040820190508181036000830152620007aa8186886200075a565b90508181036020830152620007c18184866200075a565b905095945050505050565b60006060820190508181036000830152620007e98187896200075a565b90508181036020830152620008008185876200075a565b9050620008116040830184620005a3565b9695505050505050565b7f4f776e61626c653a206e6577206f776e657220697320746865207a65726f206160008201527f6464726573730000000000000000000000000000000000000000000000000000602082015250565b60006200087960268362000729565b915062000886826200081b565b604082019050919050565b60006020820190508181036000830152620008ac816200086a565b9050919050565b7f4f776e61626c653a2063616c6c6572206973206e6f7420746865206f776e6572600082015250565b6000620008eb60208362000729565b9150620008f882620008b3565b602082019050919050565b600060208201905081810360008301526200091e81620008dc565b905091905056fe60806040523480156200001157600080fd5b506040516200379b3803806200379b8339818101604052810190620000379190620002e8565b818181600090816200004a9190620005b8565b5080600190816200005c9190620005b8565b5050506200007f620000736200008760201b60201c565b6200008f60201b60201c565b50506200069f565b600033905090565b6000600760009054906101000a900473ffffffffffffffffffffffffffffffffffffffff16905081600760006101000a81548173ffffffffffffffffffffffffffffffffffffffff021916908373ffffffffffffffffffffffffffffffffffffffff1602179055508173ffffffffffffffffffffffffffffffffffffffff168173ffffffffffffffffffffffffffffffffffffffff167f8be0079c531659141344cd1fd0a4f28419497f9722a3daafe3b4186f6b6457e060405160405180910390a35050565b6000604051905090565b600080fd5b600080fd5b600080fd5b600080fd5b6000601f19601f8301169050919050565b7f4e487b7100000000000000000000000000000000000000000000000000000000600052604160045260246000fd5b620001be8262000173565b810181811067ffffffffffffffff82111715620001e057620001df62000184565b5b80604052505050565b6000620001f562000155565b9050620002038282620001b3565b919050565b600067ffffffffffffffff82111562000226576200022562000184565b5b620002318262000173565b9050602081019050919050565b60005b838110156200025e57808201518184015260208101905062000241565b60008484015250505050565b6000620002816200027b8462000208565b620001e9565b905082815260208101848484011115620002a0576200029f6200016e565b5b620002ad8482856200023e565b509392505050565b600082601f830112620002cd57620002cc62000169565b5b8151620002df8482602086016200026a565b91505092915050565b600080604083850312156200030257620003016200015f565b5b600083015167ffffffffffffffff81111562000323576200032262000164565b5b6200033185828601620002b5565b925050602083015167ffffffffffffffff81111562000355576200035462000164565b5b6200036385828601620002b5565b9150509250929050565b600081519050919050565b7f4e487b7100000000000000000000000000000000000000000000000000000000600052602260045260246000fd5b60006002820490506001821680620003c057607f821691505b602082108103620003d657620003d562000378565b5b50919050565b60008190508160005260206000209050919050565b60006020601f8301049050919050565b600082821b905092915050565b600060088302620004407fffffffffffffffffffffffffffffffffffffffffffffffffffffffffffffffff8262000401565b6200044c868362000401565b95508019841693508086168417925050509392505050565b6000819050919050565b6000819050919050565b600062000499620004936200048d8462000464565b6200046e565b62000464565b9050919050565b6000819050919050565b620004b58362000478565b620004cd620004c482620004a0565b8484546200040e565b825550505050565b600090565b620004e4620004d5565b620004f1818484620004aa565b505050565b5b8181101562000519576200050d600082620004da565b600181019050620004f7565b5050565b601f82111562000568576200053281620003dc565b6200053d84620003f1565b810160208510156200054d578190505b620005656200055c85620003f1565b830182620004f6565b50505b505050565b600082821c905092915050565b60006200058d600019846008026200056d565b1980831691505092915050565b6000620005a883836200057a565b9150826002028217905092915050565b620005c3826200036d565b67ffffffffffffffff811115620005df57620005de62000184565b5b620005eb8254620003a7565b620005f88282856200051d565b600060209050601f8311600181146200063057600084156200061b578287015190505b6200062785826200059a565b86555062000697565b601f1984166200064086620003dc565b60005b828110156200066a5784890151825560018201915060208501945060208101905062000643565b868310156200068a578489015162000686601f8916826200057a565b8355505b6001600288020188555050505b505050505050565b6130ec80620006af6000396000f3fe608060405234801561001057600080fd5b506004361061012c5760003560e01c80638da5cb5b116100ad578063c754584911610071578063c75458491461032f578063c87b56dd1461035f578063e43252d71461038f578063e985e9c5146103ab578063f2fde38b146103db5761012c565b80638da5cb5b1461028b57806395d89b41146102a95780639b19251a146102c7578063a22cb465146102f7578063b88d4fde146103135761012c565b806342842e0e116100f457806342842e0e146101e75780636352211e1461020357806370a0823114610233578063714cff5614610263578063715018a6146102815761012c565b806301ffc9a71461013157806306fdde0314610161578063081812fc1461017f578063095ea7b3146101af57806323b872dd146101cb575b600080fd5b61014b60048036038101906101469190611e46565b6103f7565b6040516101589190611e8e565b60405180910390f35b6101696104d9565b6040516101769190611f39565b60405180910390f35b61019960048036038101906101949190611f91565b61056b565b6040516101a69190611fff565b60405180910390f35b6101c960048036038101906101c49190612046565b6105b1565b005b6101e560048036038101906101e09190612086565b6106c8565b005b61020160048036038101906101fc9190612086565b610728565b005b61021d60048036038101906102189190611f91565b610748565b60405161022a9190611fff565b60405180910390f35b61024d600480360381019061024891906120d9565b6107ce565b60405161025a9190612115565b60405180910390f35b61026b610885565b6040516102789190612115565b60405180910390f35b610289610891565b005b6102936108a5565b6040516102a09190611fff565b60405180910390f35b6102b16108cf565b6040516102be9190611f39565b60405180910390f35b6102e160048036038101906102dc91906120d9565b610961565b6040516102ee9190611e8e565b60405180910390f35b610311600480360381019061030c919061215c565b610981565b005b61032d600480360381019061032891906122d1565b610997565b005b610349600480360381019061034491906123f5565b6109f9565b6040516103569190612115565b60405180910390f35b61037960048036038101906103749190611f91565b610b0c565b6040516103869190611f39565b60405180910390f35b6103a960048036038101906103a491906120d9565b610c1e565b005b6103c560048036038101906103c0919061243e565b610cb8565b6040516103d29190611e8e565b60405180910390f35b6103f560048036038101906103f091906120d9565b610d4c565b005b60007f80ac58cd000000000000000000000000000000000000000000000000000000007bffffffffffffffffffffffffffffffffffffffffffffffffffffffff1916827bffffffffffffffffffffffffffffffffffffffffffffffffffffffff191614806104c257507f5b5e139f000000000000000000000000000000000000000000000000000000007bffffffffffffffffffffffffffffffffffffffffffffffffffffffff1916827bffffffffffffffffffffffffffffffffffffffffffffffffffffffff1916145b806104d257506104d182610dcf565b5b9050919050565b6060600080546104e8906124ad565b80601f0160208091040260200160405190810160405280929190818152602001828054610514906124ad565b80156105615780601f1061053657610100808354040283529160200191610561565b820191906000526020600020905b81548152906001019060200180831161054457829003601f168201915b5050505050905090565b600061057682610e39565b6004600083815260200190815260200160002060009054906101000a900473ffffffffffffffffffffffffffffffffffffffff169050919050565b60006105bc82610748565b90508073ffffffffffffffffffffffffffffffffffffffff168373ffffffffffffffffffffffffffffffffffffffff160361062c576040517f08c379a000000000000000000000000000000000000000000000000000000000815260040161062390612550565b60405180910390fd5b8073ffffffffffffffffffffffffffffffffffffffff1661064b610e84565b73ffffffffffffffffffffffffffffffffffffffff16148061067a575061067981610674610e84565b610cb8565b5b6106b9576040517f08c379a00000000000000000000000000000000000000000000000000000000081526004016106b0906125e2565b60405180910390fd5b6106c38383610e8c565b505050565b6106d96106d3610e84565b82610f45565b610718576040517f08c379a000000000000000000000000000000000000000000000000000000000815260040161070f90612674565b60405180910390fd5b610723838383610fda565b505050565b61074383838360405180602001604052806000815250610997565b505050565b600080610754836112d3565b9050600073ffffffffffffffffffffffffffffffffffffffff168173ffffffffffffffffffffffffffffffffffffffff16036107c5576040517f08c379a00000000000000000000000000000000000000000000000000000000081526004016107bc906126e0565b60405180910390fd5b80915050919050565b60008073ffffffffffffffffffffffffffffffffffffffff168273ffffffffffffffffffffffffffffffffffffffff160361083e576040517f08c379a000000000000000000000000000000000000000000000000000000000815260040161083590612772565b60405180910390fd5b600360008373ffffffffffffffffffffffffffffffffffffffff1673ffffffffffffffffffffffffffffffffffffffff168152602001908152602001600020549050919050565b60088060000154905081565b610899611310565b6108a3600061138e565b565b6000600760009054906101000a900473ffffffffffffffffffffffffffffffffffffffff16905090565b6060600180546108de906124ad565b80601f016020809104026020016040519081016040528092919081815260200182805461090a906124ad565b80156109575780601f1061092c57610100808354040283529160200191610957565b820191906000526020600020905b81548152906001019060200180831161093a57829003601f168201915b5050505050905090565b60096020528060005260406000206000915054906101000a900460ff1681565b61099361098c610e84565b8383611454565b5050565b6109a86109a2610e84565b83610f45565b6109e7576040517f08c379a00000000000000000000000000000000000000000000000000000000081526004016109de90612674565b60405180910390fd5b6109f3848484846115c0565b50505050565b6000600960003373ffffffffffffffffffffffffffffffffffffffff1673ffffffffffffffffffffffffffffffffffffffff16815260200190815260200160002060009054906101000a900460ff16610a87576040517f08c379a0000000000000000000000000000000000000000000000000000000008152600401610a7e906127de565b60405180910390fd5b610a91600861161c565b610aa433610a9f6008611632565b611640565b610ab7610ab16008611632565b8361165e565b7f9aad673c07866c8b5f7049a3b0a7e8091c80c3685b33244faf2bb621f050fdd733610ae36008611632565b84604051610af3939291906127fe565b60405180910390a1610b056008611632565b9050919050565b6060610b1782610e39565b6000600660008481526020019081526020016000208054610b37906124ad565b80601f0160208091040260200160405190810160405280929190818152602001828054610b63906124ad565b8015610bb05780601f10610b8557610100808354040283529160200191610bb0565b820191906000526020600020905b815481529060010190602001808311610b9357829003601f168201915b505050505090506000610bc16116cb565b90506000815103610bd6578192505050610c19565b600082511115610c0b578082604051602001610bf3929190612878565b60405160208183030381529060405292505050610c19565b610c14846116e2565b925050505b919050565b610c26611310565b6001600960008373ffffffffffffffffffffffffffffffffffffffff1673ffffffffffffffffffffffffffffffffffffffff16815260200190815260200160002060006101000a81548160ff0219169083151502179055507f4790a4adb426ca2345bb5108f6e454eae852a7bf687544cd66a7270dff3a41d681604051610cad9190611fff565b60405180910390a150565b6000600560008473ffffffffffffffffffffffffffffffffffffffff1673ffffffffffffffffffffffffffffffffffffffff16815260200190815260200160002060008373ffffffffffffffffffffffffffffffffffffffff1673ffffffffffffffffffffffffffffffffffffffff16815260200190815260200160002060009054906101000a900460ff16905092915050565b610d54611310565b600073ffffffffffffffffffffffffffffffffffffffff168173ffffffffffffffffffffffffffffffffffffffff1603610dc3576040517f08c379a0000000000000000000000000000000000000000000000000000000008152600401610dba9061290e565b60405180910390fd5b610dcc8161138e565b50565b60007f01ffc9a7000000000000000000000000000000000000000000000000000000007bffffffffffffffffffffffffffffffffffffffffffffffffffffffff1916827bffffffffffffffffffffffffffffffffffffffffffffffffffffffff1916149050919050565b610e428161174a565b610e81576040517f08c379a0000000000000000000000000000000000000000000000000000000008152600401610e78906126e0565b60405180910390fd5b50565b600033905090565b816004600083815260200190815260200160002060006101000a81548173ffffffffffffffffffffffffffffffffffffffff021916908373ffffffffffffffffffffffffffffffffffffffff160217905550808273ffffffffffffffffffffffffffffffffffffffff16610eff83610748565b73ffffffffffffffffffffffffffffffffffffffff167f8c5be1e5ebec7d5bd14f71427d1e84f3dd0314c0f7b2291e5b200ac8c7c3b92560405160405180910390a45050565b600080610f5183610748565b90508073ffffffffffffffffffffffffffffffffffffffff168473ffffffffffffffffffffffffffffffffffffffff161480610f935750610f928185610cb8565b5b80610fd157508373ffffffffffffffffffffffffffffffffffffffff16610fb98461056b565b73ffffffffffffffffffffffffffffffffffffffff16145b91505092915050565b8273ffffffffffffffffffffffffffffffffffffffff16610ffa82610748565b73ffffffffffffffffffffffffffffffffffffffff1614611050576040517f08c379a0000000000000000000000000000000000000000000000000000000008152600401611047906129a0565b60405180910390fd5b600073ffffffffffffffffffffffffffffffffffffffff168273ffffffffffffffffffffffffffffffffffffffff16036110bf576040517f08c379a00000000000000000000000000000000000000000000000000000000081526004016110b690612a32565b60405180910390fd5b6110cc838383600161178b565b8273ffffffffffffffffffffffffffffffffffffffff166110ec82610748565b73ffffffffffffffffffffffffffffffffffffffff1614611142576040517f08c379a0000000000000000000000000000000000000000000000000000000008152600401611139906129a0565b60405180910390fd5b6004600082815260200190815260200160002060006101000a81549073ffffffffffffffffffffffffffffffffffffffff02191690556001600360008573ffffffffffffffffffffffffffffffffffffffff1673ffffffffffffffffffffffffffffffffffffffff168152602001908152602001600020600082825403925050819055506001600360008473ffffffffffffffffffffffffffffffffffffffff1673ffffffffffffffffffffffffffffffffffffffff16815260200190815260200160002060008282540192505081905550816002600083815260200190815260200160002060006101000a81548173ffffffffffffffffffffffffffffffffffffffff021916908373ffffffffffffffffffffffffffffffffffffffff160217905550808273ffffffffffffffffffffffffffffffffffffffff168473ffffffffffffffffffffffffffffffffffffffff167fddf252ad1be2c89b69c2b068fc378daa952ba7f163c4a11628f55a4df523b3ef60405160405180910390a46112ce8383836001611791565b505050565b60006002600083815260200190815260200160002060009054906101000a900473ffffffffffffffffffffffffffffffffffffffff169050919050565b611318610e84565b73ffffffffffffffffffffffffffffffffffffffff166113366108a5565b73ffffffffffffffffffffffffffffffffffffffff161461138c576040517f08c379a000000000000000000000000000000000000000000000000000000000815260040161138390612a9e565b60405180910390fd5b565b6000600760009054906101000a900473ffffffffffffffffffffffffffffffffffffffff16905081600760006101000a81548173ffffffffffffffffffffffffffffffffffffffff021916908373ffffffffffffffffffffffffffffffffffffffff1602179055508173ffffffffffffffffffffffffffffffffffffffff168173ffffffffffffffffffffffffffffffffffffffff167f8be0079c531659141344cd1fd0a4f28419497f9722a3daafe3b4186f6b6457e060405160405180910390a35050565b8173ffffffffffffffffffffffffffffffffffffffff168373ffffffffffffffffffffffffffffffffffffffff16036114c2576040517f08c379a00000000000000000000000000000000000000000000000000000000081526004016114b990612b0a565b60405180910390fd5b80600560008573ffffffffffffffffffffffffffffffffffffffff1673ffffffffffffffffffffffffffffffffffffffff16815260200190815260200160002060008473ffffffffffffffffffffffffffffffffffffffff1673ffffffffffffffffffffffffffffffffffffffff16815260200190815260200160002060006101000a81548160ff0219169083151502179055508173ffffffffffffffffffffffffffffffffffffffff168373ffffffffffffffffffffffffffffffffffffffff167f17307eab39ab6107e8899845ad3d59bd9653f200f220920489ca2b5937696c31836040516115b39190611e8e565b60405180910390a3505050565b6115cb848484610fda565b6115d784848484611797565b611616576040517f08c379a000000000000000000000000000000000000000000000000000000000815260040161160d90612b9c565b60405180910390fd5b50505050565b6001816000016000828254019250508190555050565b600081600001549050919050565b61165a82826040518060200160405280600081525061191e565b5050565b6116678261174a565b6116a6576040517f08c379a000000000000000000000000000000000000000000000000000000000815260040161169d90612c2e565b60405180910390fd5b806006600084815260200190815260200160002090816116c69190612dfa565b505050565b606060405180602001604052806000815250905090565b60606116ed82610e39565b60006116f76116cb565b905060008151116117175760405180602001604052806000815250611742565b8061172184611979565b604051602001611732929190612878565b6040516020818303038152906040525b915050919050565b60008073ffffffffffffffffffffffffffffffffffffffff1661176c836112d3565b73ffffffffffffffffffffffffffffffffffffffff1614159050919050565b50505050565b50505050565b60006117b88473ffffffffffffffffffffffffffffffffffffffff16611a47565b15611911578373ffffffffffffffffffffffffffffffffffffffff1663150b7a026117e1610e84565b8786866040518563ffffffff1660e01b81526004016118039493929190612f21565b6020604051808303816000875af192505050801561183f57506040513d601f19601f8201168201806040525081019061183c9190612f82565b60015b6118c1573d806000811461186f576040519150601f19603f3d011682016040523d82523d6000602084013e611874565b606091505b5060008151036118b9576040517f08c379a00000000000000000000000000000000000000000000000000000000081526004016118b090612b9c565b60405180910390fd5b805181602001fd5b63150b7a0260e01b7bffffffffffffffffffffffffffffffffffffffffffffffffffffffff1916817bffffffffffffffffffffffffffffffffffffffffffffffffffffffff191614915050611916565b600190505b949350505050565b6119288383611a6a565b6119356000848484611797565b611974576040517f08c379a000000000000000000000000000000000000000000000000000000000815260040161196b90612b9c565b60405180910390fd5b505050565b60606000600161198884611c87565b01905060008167ffffffffffffffff8111156119a7576119a66121a6565b5b6040519080825280601f01601f1916602001820160405280156119d95781602001600182028036833780820191505090505b509050600082602001820190505b600115611a3c578080600190039150507f3031323334353637383961626364656600000000000000000000000000000000600a86061a8153600a8581611a3057611a2f612faf565b5b049450600085036119e7575b819350505050919050565b6000808273ffffffffffffffffffffffffffffffffffffffff163b119050919050565b600073ffffffffffffffffffffffffffffffffffffffff168273ffffffffffffffffffffffffffffffffffffffff1603611ad9576040517f08c379a0000000000000000000000000000000000000000000000000000000008152600401611ad09061302a565b60405180910390fd5b611ae28161174a565b15611b22576040517f08c379a0000000000000000000000000000000000000000000000000000000008152600401611b1990613096565b60405180910390fd5b611b3060008383600161178b565b611b398161174a565b15611b79576040517f08c379a0000000000000000000000000000000000000000000000000000000008152600401611b7090613096565b60405180910390fd5b6001600360008473ffffffffffffffffffffffffffffffffffffffff1673ffffffffffffffffffffffffffffffffffffffff16815260200190815260200160002060008282540192505081905550816002600083815260200190815260200160002060006101000a81548173ffffffffffffffffffffffffffffffffffffffff021916908373ffffffffffffffffffffffffffffffffffffffff160217905550808273ffffffffffffffffffffffffffffffffffffffff16600073ffffffffffffffffffffffffffffffffffffffff167fddf252ad1be2c89b69c2b068fc378daa952ba7f163c4a11628f55a4df523b3ef60405160405180910390a4611c83600083836001611791565b5050565b600080600090507a184f03e93ff9f4daa797ed6e38ed64bf6a1f0100000000000000008310611ce5577a184f03e93ff9f4daa797ed6e38ed64bf6a1f0100000000000000008381611cdb57611cda612faf565b5b0492506040810190505b6d04ee2d6d415b85acef81000000008310611d22576d04ee2d6d415b85acef81000000008381611d1857611d17612faf565b5b0492506020810190505b662386f26fc100008310611d5157662386f26fc100008381611d4757611d46612faf565b5b0492506010810190505b6305f5e1008310611d7a576305f5e1008381611d7057611d6f612faf565b5b0492506008810190505b6127108310611d9f576127108381611d9557611d94612faf565b5b0492506004810190505b60648310611dc25760648381611db857611db7612faf565b5b0492506002810190505b600a8310611dd1576001810190505b80915050919050565b6000604051905090565b600080fd5b600080fd5b60007fffffffff0000000000000000000000000000000000000000000000000000000082169050919050565b611e2381611dee565b8114611e2e57600080fd5b50565b600081359050611e4081611e1a565b92915050565b600060208284031215611e5c57611e5b611de4565b5b6000611e6a84828501611e31565b91505092915050565b60008115159050919050565b611e8881611e73565b82525050565b6000602082019050611ea36000830184611e7f565b92915050565b600081519050919050565b600082825260208201905092915050565b60005b83811015611ee3578082015181840152602081019050611ec8565b60008484015250505050565b6000601f19601f8301169050919050565b6000611f0b82611ea9565b611f158185611eb4565b9350611f25818560208601611ec5565b611f2e81611eef565b840191505092915050565b60006020820190508181036000830152611f538184611f00565b905092915050565b6000819050919050565b611f6e81611f5b565b8114611f7957600080fd5b50565b600081359050611f8b81611f65565b92915050565b600060208284031215611fa757611fa6611de4565b5b6000611fb584828501611f7c565b91505092915050565b600073ffffffffffffffffffffffffffffffffffffffff82169050919050565b6000611fe982611fbe565b9050919050565b611ff981611fde565b82525050565b60006020820190506120146000830184611ff0565b92915050565b61202381611fde565b811461202e57600080fd5b50565b6000813590506120408161201a565b92915050565b6000806040838503121561205d5761205c611de4565b5b600061206b85828601612031565b925050602061207c85828601611f7c565b9150509250929050565b60008060006060848603121561209f5761209e611de4565b5b60006120ad86828701612031565b93505060206120be86828701612031565b92505060406120cf86828701611f7c565b9150509250925092565b6000602082840312156120ef576120ee611de4565b5b60006120fd84828501612031565b91505092915050565b61210f81611f5b565b82525050565b600060208201905061212a6000830184612106565b92915050565b61213981611e73565b811461214457600080fd5b50565b60008135905061215681612130565b92915050565b6000806040838503121561217357612172611de4565b5b600061218185828601612031565b925050602061219285828601612147565b9150509250929050565b600080fd5b600080fd5b7f4e487b7100000000000000000000000000000000000000000000000000000000600052604160045260246000fd5b6121de82611eef565b810181811067ffffffffffffffff821117156121fd576121fc6121a6565b5b80604052505050565b6000612210611dda565b905061221c82826121d5565b919050565b600067ffffffffffffffff82111561223c5761223b6121a6565b5b61224582611eef565b9050602081019050919050565b82818337600083830152505050565b600061227461226f84612221565b612206565b9050828152602081018484840111156122905761228f6121a1565b5b61229b848285612252565b509392505050565b600082601f8301126122b8576122b761219c565b5b81356122c8848260208601612261565b91505092915050565b600080600080608085870312156122eb576122ea611de4565b5b60006122f987828801612031565b945050602061230a87828801612031565b935050604061231b87828801611f7c565b925050606085013567ffffffffffffffff81111561233c5761233b611de9565b5b612348878288016122a3565b91505092959194509250565b600067ffffffffffffffff82111561236f5761236e6121a6565b5b61237882611eef565b9050602081019050919050565b600061239861239384612354565b612206565b9050828152602081018484840111156123b4576123b36121a1565b5b6123bf848285612252565b509392505050565b600082601f8301126123dc576123db61219c565b5b81356123ec848260208601612385565b91505092915050565b60006020828403121561240b5761240a611de4565b5b600082013567ffffffffffffffff81111561242957612428611de9565b5b612435848285016123c7565b91505092915050565b6000806040838503121561245557612454611de4565b5b600061246385828601612031565b925050602061247485828601612031565b9150509250929050565b7f4e487b7100000000000000000000000000000000000000000000000000000000600052602260045260246000fd5b600060028204905060018216806124c557607f821691505b6020821081036124d8576124d761247e565b5b50919050565b7f4552433732313a20617070726f76616c20746f2063757272656e74206f776e6560008201527f7200000000000000000000000000000000000000000000000000000000000000602082015250565b600061253a602183611eb4565b9150612545826124de565b604082019050919050565b600060208201905081810360008301526125698161252d565b9050919050565b7f4552433732313a20617070726f76652063616c6c6572206973206e6f7420746f60008201527f6b656e206f776e6572206f7220617070726f76656420666f7220616c6c000000602082015250565b60006125cc603d83611eb4565b91506125d782612570565b604082019050919050565b600060208201905081810360008301526125fb816125bf565b9050919050565b7f4552433732313a2063616c6c6572206973206e6f7420746f6b656e206f776e6560008201527f72206f7220617070726f76656400000000000000000000000000000000000000602082015250565b600061265e602d83611eb4565b915061266982612602565b604082019050919050565b6000602082019050818103600083015261268d81612651565b9050919050565b7f4552433732313a20696e76616c696420746f6b656e2049440000000000000000600082015250565b60006126ca601883611eb4565b91506126d582612694565b602082019050919050565b600060208201905081810360008301526126f9816126bd565b9050919050565b7f4552433732313a2061646472657373207a65726f206973206e6f74206120766160008201527f6c6964206f776e65720000000000000000000000000000000000000000000000602082015250565b600061275c602983611eb4565b915061276782612700565b604082019050919050565b6000602082019050818103600083015261278b8161274f565b9050919050565b7f4e6f7420417574686f72697a6564000000000000000000000000000000000000600082015250565b60006127c8600e83611eb4565b91506127d382612792565b602082019050919050565b600060208201905081810360008301526127f7816127bb565b9050919050565b60006060820190506128136000830186611ff0565b6128206020830185612106565b81810360408301526128328184611f00565b9050949350505050565b600081905092915050565b600061285282611ea9565b61285c818561283c565b935061286c818560208601611ec5565b80840191505092915050565b60006128848285612847565b91506128908284612847565b91508190509392505050565b7f4f776e61626c653a206e6577206f776e657220697320746865207a65726f206160008201527f6464726573730000000000000000000000000000000000000000000000000000602082015250565b60006128f8602683611eb4565b91506129038261289c565b604082019050919050565b60006020820190508181036000830152612927816128eb565b9050919050565b7f4552433732313a207472616e736665722066726f6d20696e636f72726563742060008201527f6f776e6572000000000000000000000000000000000000000000000000000000602082015250565b600061298a602583611eb4565b91506129958261292e565b604082019050919050565b600060208201905081810360008301526129b98161297d565b9050919050565b7f4552433732313a207472616e7366657220746f20746865207a65726f2061646460008201527f7265737300000000000000000000000000000000000000000000000000000000602082015250565b6000612a1c602483611eb4565b9150612a27826129c0565b604082019050919050565b60006020820190508181036000830152612a4b81612a0f565b9050919050565b7f4f776e61626c653a2063616c6c6572206973206e6f7420746865206f776e6572600082015250565b6000612a88602083611eb4565b9150612a9382612a52565b602082019050919050565b60006020820190508181036000830152612ab781612a7b565b9050919050565b7f4552433732313a20617070726f766520746f2063616c6c657200000000000000600082015250565b6000612af4601983611eb4565b9150612aff82612abe565b602082019050919050565b60006020820190508181036000830152612b2381612ae7565b9050919050565b7f4552433732313a207472616e7366657220746f206e6f6e20455243373231526560008201527f63656976657220696d706c656d656e7465720000000000000000000000000000602082015250565b6000612b86603283611eb4565b9150612b9182612b2a565b604082019050919050565b60006020820190508181036000830152612bb581612b79565b9050919050565b7f45524337323155524953746f726167653a2055524920736574206f66206e6f6e60008201527f6578697374656e7420746f6b656e000000000000000000000000000000000000602082015250565b6000612c18602e83611eb4565b9150612c2382612bbc565b604082019050919050565b60006020820190508181036000830152612c4781612c0b565b9050919050565b60008190508160005260206000209050919050565b60006020601f8301049050919050565b600082821b905092915050565b600060088302612cb07fffffffffffffffffffffffffffffffffffffffffffffffffffffffffffffffff82612c73565b612cba8683612c73565b95508019841693508086168417925050509392505050565b6000819050919050565b6000612cf7612cf2612ced84611f5b565b612cd2565b611f5b565b9050919050565b6000819050919050565b612d1183612cdc565b612d25612d1d82612cfe565b848454612c80565b825550505050565b600090565b612d3a612d2d565b612d45818484612d08565b505050565b5b81811015612d6957612d5e600082612d32565b600181019050612d4b565b5050565b601f821115612dae57612d7f81612c4e565b612d8884612c63565b81016020851015612d97578190505b612dab612da385612c63565b830182612d4a565b50505b505050565b600082821c905092915050565b6000612dd160001984600802612db3565b1980831691505092915050565b6000612dea8383612dc0565b9150826002028217905092915050565b612e0382611ea9565b67ffffffffffffffff811115612e1c57612e1b6121a6565b5b612e2682546124ad565b612e31828285612d6d565b600060209050601f831160018114612e645760008415612e52578287015190505b612e5c8582612dde565b865550612ec4565b601f198416612e7286612c4e565b60005b82811015612e9a57848901518255600182019150602085019450602081019050612e75565b86831015612eb75784890151612eb3601f891682612dc0565b8355505b6001600288020188555050505b505050505050565b600081519050919050565b600082825260208201905092915050565b6000612ef382612ecc565b612efd8185612ed7565b9350612f0d818560208601611ec5565b612f1681611eef565b840191505092915050565b6000608082019050612f366000830187611ff0565b612f436020830186611ff0565b612f506040830185612106565b8181036060830152612f628184612ee8565b905095945050505050565b600081519050612f7c81611e1a565b92915050565b600060208284031215612f9857612f97611de4565b5b6000612fa684828501612f6d565b91505092915050565b7f4e487b7100000000000000000000000000000000000000000000000000000000600052601260045260246000fd5b7f4552433732313a206d696e7420746f20746865207a65726f2061646472657373600082015250565b6000613014602083611eb4565b915061301f82612fde565b602082019050919050565b6000602082019050818103600083015261304381613007565b9050919050565b7f4552433732313a20746f6b656e20616c7265616479206d696e74656400000000600082015250565b6000613080601c83611eb4565b915061308b8261304a565b602082019050919050565b600060208201905081810360008301526130af81613073565b905091905056fea2646970667358221220411548d82a404819224266d8f1f98e309f84bd1f28f3f19ae669a9e1db2f3dd064736f6c63430008130033a2646970667358221220f0b55c9278fd4a4a8eb452c6e78bb03158cd7a8839ecbabc2c0d9110245eb06664736f6c63430008130033",
  "linkReferences": {},
  "deployedLinkReferences": {}
}