{
  "_format": "hh-sol-artifact-1",
  "contractName": "Marketplace",
  "sourceName": "contracts/Marketplace.sol",
  "abi": [
    {
      "inputs": [
        {
          "internalType": "uint256",
          "name": "_feeRate",
          "type": "uint256"
        }
      ],
      "stateMutability": "nonpayable",
      "type": "constructor"
    },
    {
      "anonymous": false,
      "inputs": [
        {
          "indexed": true,
          "internalType": "address",
          "name": "_addr",
          "type": "address"
        },
        {
          "indexed": false,
          "internalType": "string",
          "name": "_name",
          "type": "string"
        }
      ],
      "name": "ExpertAdded",
      "type": "event"
    },
    {
      "anonymous": false,
      "inputs": [
        {
          "indexed": false,
          "internalType": "uint256",
          "name": "itemId",
          "type": "uint256"
        },
        {
          "indexed": false,
          "internalType": "uint256",
          "name": "tokenId",
          "type": "uint256"
        },
        {
          "indexed": false,
          "internalType": "address payable",
          "name": "seller",
          "type": "address"
        },
        {
          "indexed": false,
          "internalType": "string",
          "name": "brand",
          "type": "string"
        },
        {
          "indexed": false,
          "internalType": "string",
          "name": "model",
          "type": "string"
        },
        {
          "indexed": false,
          "internalType": "string",
          "name": "serial",
          "type": "string"
        },
        {
          "indexed": false,
          "internalType": "enum Marketplace.ItemStatus",
          "name": "status",
          "type": "uint8"
        }
      ],
      "name": "ItemUpdated",
      "type": "event"
    },
    {
      "anonymous": false,
      "inputs": [
        {
          "indexed": true,
          "internalType": "address",
          "name": "previousOwner",
          "type": "address"
        },
        {
          "indexed": true,
          "internalType": "address",
          "name": "newOwner",
          "type": "address"
        }
      ],
      "name": "OwnershipTransferred",
      "type": "event"
    },
    {
      "anonymous": false,
      "inputs": [
        {
          "indexed": false,
          "internalType": "uint256",
          "name": "_prev",
          "type": "uint256"
        },
        {
          "indexed": false,
          "internalType": "uint256",
          "name": "_profitRate",
          "type": "uint256"
        }
      ],
      "name": "UpdatedProfitRate",
      "type": "event"
    },
    {
      "inputs": [
        {
          "internalType": "address payable",
          "name": "_addr",
          "type": "address"
        },
        {
          "internalType": "string",
          "name": "_name",
          "type": "string"
        }
      ],
      "name": "addExpert",
      "outputs": [],
      "stateMutability": "nonpayable",
      "type": "function"
    },
    {
      "inputs": [
        {
          "internalType": "string",
          "name": "_brand",
          "type": "string"
        },
        {
          "internalType": "string",
          "name": "_model",
          "type": "string"
        },
        {
          "internalType": "string",
          "name": "_description",
          "type": "string"
        },
        {
          "internalType": "string",
          "name": "_serial",
          "type": "string"
        },
        {
          "internalType": "uint256",
          "name": "_price",
          "type": "uint256"
        }
      ],
      "name": "addItem",
      "outputs": [],
      "stateMutability": "nonpayable",
      "type": "function"
    },
    {
      "inputs": [
        {
          "internalType": "contract IERC721",
          "name": "_certificate",
          "type": "address"
        },
        {
          "internalType": "uint256",
          "name": "_tokenId",
          "type": "uint256"
        },
        {
          "internalType": "uint256",
          "name": "_itemId",
          "type": "uint256"
        }
      ],
      "name": "addToken",
      "outputs": [],
      "stateMutability": "nonpayable",
      "type": "function"
    },
    {
      "inputs": [
        {
          "internalType": "uint256",
          "name": "_itemId",
          "type": "uint256"
        }
      ],
      "name": "buyItem",
      "outputs": [],
      "stateMutability": "payable",
      "type": "function"
    },
    {
      "inputs": [
        {
          "internalType": "address",
          "name": "",
          "type": "address"
        }
      ],
      "name": "experts",
      "outputs": [
        {
          "internalType": "string",
          "name": "name",
          "type": "string"
        },
        {
          "internalType": "bool",
          "name": "authorized",
          "type": "bool"
        }
      ],
      "stateMutability": "view",
      "type": "function"
    },
    {
      "inputs": [],
      "name": "feeAccount",
      "outputs": [
        {
          "internalType": "address payable",
          "name": "",
          "type": "address"
        }
      ],
      "stateMutability": "view",
      "type": "function"
    },
    {
      "inputs": [],
      "name": "feeRate",
      "outputs": [
        {
          "internalType": "uint256",
          "name": "",
          "type": "uint256"
        }
      ],
      "stateMutability": "view",
      "type": "function"
    },
    {
      "inputs": [
        {
          "internalType": "uint256",
          "name": "_itemId",
          "type": "uint256"
        }
      ],
      "name": "getTotalPrice",
      "outputs": [
        {
          "internalType": "uint256",
          "name": "",
          "type": "uint256"
        }
      ],
      "stateMutability": "view",
      "type": "function"
    },
    {
      "inputs": [],
      "name": "itemCount",
      "outputs": [
        {
          "internalType": "uint256",
          "name": "",
          "type": "uint256"
        }
      ],
      "stateMutability": "view",
      "type": "function"
    },
    {
      "inputs": [
        {
          "internalType": "uint256",
          "name": "",
          "type": "uint256"
        }
      ],
      "name": "items",
      "outputs": [
        {
          "internalType": "uint256",
          "name": "itemId",
          "type": "uint256"
        },
        {
          "internalType": "contract IERC721",
          "name": "certificate",
          "type": "address"
        },
        {
          "internalType": "uint256",
          "name": "tokenId",
          "type": "uint256"
        },
        {
          "internalType": "address payable",
          "name": "seller",
          "type": "address"
        },
        {
          "internalType": "address payable",
          "name": "expert",
          "type": "address"
        },
        {
          "internalType": "string",
          "name": "brand",
          "type": "string"
        },
        {
          "internalType": "string",
          "name": "model",
          "type": "string"
        },
        {
          "internalType": "string",
          "name": "description",
          "type": "string"
        },
        {
          "internalType": "string",
          "name": "serial",
          "type": "string"
        },
        {
          "internalType": "uint256",
          "name": "price",
          "type": "uint256"
        },
        {
          "internalType": "enum Marketplace.ItemStatus",
          "name": "status",
          "type": "uint8"
        },
        {
          "internalType": "string",
          "name": "ipfsUrl",
          "type": "string"
        }
      ],
      "stateMutability": "view",
      "type": "function"
    },
    {
      "inputs": [],
      "name": "owner",
      "outputs": [
        {
          "internalType": "address",
          "name": "",
          "type": "address"
        }
      ],
      "stateMutability": "view",
      "type": "function"
    },
    {
      "inputs": [],
      "name": "renounceOwnership",
      "outputs": [],
      "stateMutability": "nonpayable",
      "type": "function"
    },
    {
      "inputs": [
        {
          "internalType": "address",
          "name": "newOwner",
          "type": "address"
        }
      ],
      "name": "transferOwnership",
      "outputs": [],
      "stateMutability": "nonpayable",
      "type": "function"
    },
    {
      "inputs": [
        {
          "internalType": "uint256",
          "name": "_itemId",
          "type": "uint256"
        },
        {
          "internalType": "uint256",
          "name": "_status",
          "type": "uint256"
        },
        {
          "internalType": "string",
          "name": "_ipfsUrl",
          "type": "string"
        }
      ],
      "name": "updateItem",
      "outputs": [],
      "stateMutability": "nonpayable",
      "type": "function"
    },
    {
      "inputs": [
        {
          "internalType": "uint256",
          "name": "_feeRate",
          "type": "uint256"
        }
      ],
      "name": "updateProfitRate",
      "outputs": [],
      "stateMutability": "nonpayable",
      "type": "function"
    }
  ],
  "bytecode": "0x60a06040523480156200001157600080fd5b5060405162003306380380620033068339818101604052810190620000379190620001ac565b620000576200004b620000a060201b60201c565b620000a860201b60201c565b600180819055503373ffffffffffffffffffffffffffffffffffffffff1660808173ffffffffffffffffffffffffffffffffffffffff16815250508060028190555050620001de565b600033905090565b60008060009054906101000a900473ffffffffffffffffffffffffffffffffffffffff169050816000806101000a81548173ffffffffffffffffffffffffffffffffffffffff021916908373ffffffffffffffffffffffffffffffffffffffff1602179055508173ffffffffffffffffffffffffffffffffffffffff168173ffffffffffffffffffffffffffffffffffffffff167f8be0079c531659141344cd1fd0a4f28419497f9722a3daafe3b4186f6b6457e060405160405180910390a35050565b600080fd5b6000819050919050565b620001868162000171565b81146200019257600080fd5b50565b600081519050620001a6816200017b565b92915050565b600060208284031215620001c557620001c46200016c565b5b6000620001d58482850162000195565b91505092915050565b608051613105620002016000396000818161044001526113a601526131056000f3fe6080604052600436106100e85760003560e01c8063ab9885741161008a578063dee1f2af11610059578063dee1f2af146102ee578063e7fb74c714610317578063f2fde38b14610333578063fbedd1141461035c576100e8565b8063ab98857414610217578063bfb231d214610240578063ca7dd37514610288578063cf338821146102c5576100e8565b80636bfb0d01116100c65780636bfb0d011461017f578063715018a6146101aa5780638da5cb5b146101c1578063978bbdb9146101ec576100e8565b806312572f5a146100ed57806365e17c9d1461012b5780636b9d838b14610156575b600080fd5b3480156100f957600080fd5b50610114600480360381019061010f9190611d6e565b610385565b604051610122929190611e46565b60405180910390f35b34801561013757600080fd5b5061014061043e565b60405161014d9190611e97565b60405180910390f35b34801561016257600080fd5b5061017d60048036038101906101789190611ee8565b610462565b005b34801561018b57600080fd5b50610194610504565b6040516101a19190611f24565b60405180910390f35b3480156101b657600080fd5b506101bf61050a565b005b3480156101cd57600080fd5b506101d661051e565b6040516101e39190611f4e565b60405180910390f35b3480156101f857600080fd5b50610201610547565b60405161020e9190611f24565b60405180910390f35b34801561022357600080fd5b5061023e60048036038101906102399190611fce565b61054d565b005b34801561024c57600080fd5b5061026760048036038101906102629190611ee8565b610844565b60405161027f9c9b9a99989796959493929190612118565b60405180910390f35b34801561029457600080fd5b506102af60048036038101906102aa9190611ee8565b610bb9565b6040516102bc9190611f24565b60405180910390f35b3480156102d157600080fd5b506102ec60048036038101906102e79190612221565b610cda565b005b3480156102fa57600080fd5b50610315600480360381019061031091906122bf565b610eda565b005b610331600480360381019061032c9190611ee8565b611106565b005b34801561033f57600080fd5b5061035a60048036038101906103559190611d6e565b6115a7565b005b34801561036857600080fd5b50610383600480360381019061037e9190612312565b61162a565b005b60046020528060005260406000206000915090508060000180546103a89061243d565b80601f01602080910402602001604051908101604052809291908181526020018280546103d49061243d565b80156104215780601f106103f657610100808354040283529160200191610421565b820191906000526020600020905b81548152906001019060200180831161040457829003601f168201915b5050505050908060010160009054906101000a900460ff16905082565b7f000000000000000000000000000000000000000000000000000000000000000081565b61046a611b38565b60008111801561047a5750606481105b6104b9576040517f08c379a00000000000000000000000000000000000000000000000000000000081526004016104b0906124ba565b60405180910390fd5b60006002549050816002819055507fee54bd5a5f458c777ec4afad29cb0e8bdaaab93f017dea2497559b036e40a0ff81836040516104f89291906124da565b60405180910390a15050565b60035481565b610512611b38565b61051c6000611bb6565b565b60008060009054906101000a900473ffffffffffffffffffffffffffffffffffffffff16905090565b60025481565b60011515600460003373ffffffffffffffffffffffffffffffffffffffff1673ffffffffffffffffffffffffffffffffffffffff16815260200190815260200160002060010160009054906101000a900460ff16151514806105e157506105b261051e565b73ffffffffffffffffffffffffffffffffffffffff163373ffffffffffffffffffffffffffffffffffffffff16145b610620576040517f08c379a00000000000000000000000000000000000000000000000000000000081526004016106179061254f565b60405180910390fd5b8360008111801561063357506003548111155b610672576040517f08c379a0000000000000000000000000000000000000000000000000000000008152600401610669906125bb565b60405180910390fd5b600480811115610685576106846120a1565b5b60056000838152602001908152602001600020600a0160009054906101000a900460ff1660048111156106bb576106ba6120a1565b5b036106fb576040517f08c379a00000000000000000000000000000000000000000000000000000000081526004016106f290612627565b60405180910390fd5b6000600560008781526020019081526020016000209050600060028603610720573390505b808260040160006101000a81548173ffffffffffffffffffffffffffffffffffffffff021916908373ffffffffffffffffffffffffffffffffffffffff160217905550856004811115610776576107756120a1565b5b82600a0160006101000a81548160ff0219169083600481111561079c5761079b6120a1565b5b0217905550848483600b0191826107b4929190612823565b507fe3bed06da1023c776f8cdc8458ab8e3f34bf3569343140f85ff43afdd76da02d8783600201548460030160009054906101000a900473ffffffffffffffffffffffffffffffffffffffff168560050186600601876008018c60048111156108205761081f6120a1565b5b6040516108339796959493929190612977565b60405180910390a150505050505050565b60056020528060005260406000206000915090508060000154908060010160009054906101000a900473ffffffffffffffffffffffffffffffffffffffff16908060020154908060030160009054906101000a900473ffffffffffffffffffffffffffffffffffffffff16908060040160009054906101000a900473ffffffffffffffffffffffffffffffffffffffff16908060050180546108e59061243d565b80601f01602080910402602001604051908101604052809291908181526020018280546109119061243d565b801561095e5780601f106109335761010080835404028352916020019161095e565b820191906000526020600020905b81548152906001019060200180831161094157829003601f168201915b5050505050908060060180546109739061243d565b80601f016020809104026020016040519081016040528092919081815260200182805461099f9061243d565b80156109ec5780601f106109c1576101008083540402835291602001916109ec565b820191906000526020600020905b8154815290600101906020018083116109cf57829003601f168201915b505050505090806007018054610a019061243d565b80601f0160208091040260200160405190810160405280929190818152602001828054610a2d9061243d565b8015610a7a5780601f10610a4f57610100808354040283529160200191610a7a565b820191906000526020600020905b815481529060010190602001808311610a5d57829003601f168201915b505050505090806008018054610a8f9061243d565b80601f0160208091040260200160405190810160405280929190818152602001828054610abb9061243d565b8015610b085780601f10610add57610100808354040283529160200191610b08565b820191906000526020600020905b815481529060010190602001808311610aeb57829003601f168201915b50505050509080600901549080600a0160009054906101000a900460ff169080600b018054610b369061243d565b80601f0160208091040260200160405190810160405280929190818152602001828054610b629061243d565b8015610baf5780601f10610b8457610100808354040283529160200191610baf565b820191906000526020600020905b815481529060010190602001808311610b9257829003601f168201915b505050505090508c565b600081600081118015610bce57506003548111155b610c0d576040517f08c379a0000000000000000000000000000000000000000000000000000000008152600401610c04906125bb565b60405180910390fd5b600480811115610c2057610c1f6120a1565b5b60056000838152602001908152602001600020600a0160009054906101000a900460ff166004811115610c5657610c556120a1565b5b03610c96576040517f08c379a0000000000000000000000000000000000000000000000000000000008152600401610c8d90612627565b60405180910390fd5b60646002546064610ca79190612a2a565b6005600086815260200190815260200160002060090154610cc89190612a5e565b610cd29190612acf565b915050919050565b610ce2611b38565b600073ffffffffffffffffffffffffffffffffffffffff168373ffffffffffffffffffffffffffffffffffffffff1603610d1b57600080fd5b60011515600460008573ffffffffffffffffffffffffffffffffffffffff1673ffffffffffffffffffffffffffffffffffffffff16815260200190815260200160002060010160009054906101000a900460ff16151503610db1576040517f08c379a0000000000000000000000000000000000000000000000000000000008152600401610da890612b4c565b60405180910390fd5b604051806040016040528083838080601f016020809104026020016040519081016040528093929190818152602001838380828437600081840152601f19601f82011690508083019250505050505050815260200160011515815250600460008573ffffffffffffffffffffffffffffffffffffffff1673ffffffffffffffffffffffffffffffffffffffff1681526020019081526020016000206000820151816000019081610e619190612b6c565b5060208201518160010160006101000a81548160ff0219169083151502179055509050508273ffffffffffffffffffffffffffffffffffffffff167f2cc99b38d2870180a408f7f0fdab27eab3c7ac43db186dc38ebe12c7dc7890c68383604051610ecd929190612c7a565b60405180910390a2505050565b803373ffffffffffffffffffffffffffffffffffffffff166005600083815260200190815260200160002060030160009054906101000a900473ffffffffffffffffffffffffffffffffffffffff1673ffffffffffffffffffffffffffffffffffffffff1614610f7f576040517f08c379a0000000000000000000000000000000000000000000000000000000008152600401610f769061254f565b60405180910390fd5b610f87611c7a565b60006005600084815260200190815260200160002090508473ffffffffffffffffffffffffffffffffffffffff166323b872dd3330876040518463ffffffff1660e01b8152600401610fdb93929190612c9e565b600060405180830381600087803b158015610ff557600080fd5b505af1158015611009573d6000803e3d6000fd5b50505050848160010160006101000a81548173ffffffffffffffffffffffffffffffffffffffff021916908373ffffffffffffffffffffffffffffffffffffffff160217905550838160020181905550600381600a0160006101000a81548160ff02191690836004811115611081576110806120a1565b5b02179055507fe3bed06da1023c776f8cdc8458ab8e3f34bf3569343140f85ff43afdd76da02d83858360030160009054906101000a900473ffffffffffffffffffffffffffffffffffffffff1684600501856006018660080160036040516110ef9796959493929190612977565b60405180910390a150611100611cc9565b50505050565b61110e611c7a565b8060008111801561112157506003548111155b611160576040517f08c379a0000000000000000000000000000000000000000000000000000000008152600401611157906125bb565b60405180910390fd5b600480811115611173576111726120a1565b5b60056000838152602001908152602001600020600a0160009054906101000a900460ff1660048111156111a9576111a86120a1565b5b036111e9576040517f08c379a00000000000000000000000000000000000000000000000000000000081526004016111e090612627565b60405180910390fd5b6000600560008481526020019081526020016000209050600061120b84610bb9565b90506000611239600261122b856009015485611cd290919063ffffffff16565b611ce890919063ffffffff16565b90508134101561127e576040517f08c379a000000000000000000000000000000000000000000000000000000000815260040161127590612d21565b60405180910390fd5b60008360030160009054906101000a900473ffffffffffffffffffffffffffffffffffffffff1673ffffffffffffffffffffffffffffffffffffffff1684600901546040516112cc90612d72565b60006040518083038185875af1925050503d8060008114611309576040519150601f19603f3d011682016040523d82523d6000602084013e61130e565b606091505b5050905060008460040160009054906101000a900473ffffffffffffffffffffffffffffffffffffffff1673ffffffffffffffffffffffffffffffffffffffff168360405161135c90612d72565b60006040518083038185875af1925050503d8060008114611399576040519150601f19603f3d011682016040523d82523d6000602084013e61139e565b606091505b5050905060007f000000000000000000000000000000000000000000000000000000000000000073ffffffffffffffffffffffffffffffffffffffff16846040516113e890612d72565b60006040518083038185875af1925050503d8060008114611425576040519150601f19603f3d011682016040523d82523d6000602084013e61142a565b606091505b505090508280156114385750815b80156114415750805b611480576040517f08c379a000000000000000000000000000000000000000000000000000000000815260040161147790612dd3565b60405180910390fd5b600486600a0160006101000a81548160ff021916908360048111156114a8576114a76120a1565b5b02179055508560010160009054906101000a900473ffffffffffffffffffffffffffffffffffffffff1673ffffffffffffffffffffffffffffffffffffffff166323b872dd303389600201546040518463ffffffff1660e01b815260040161151293929190612c9e565b600060405180830381600087803b15801561152c57600080fd5b505af1158015611540573d6000803e3d6000fd5b505050507fe3bed06da1023c776f8cdc8458ab8e3f34bf3569343140f85ff43afdd76da02d88876002015433896005018a6006018b600801600460405161158d9796959493929190612977565b60405180910390a1505050505050506115a4611cc9565b50565b6115af611b38565b600073ffffffffffffffffffffffffffffffffffffffff168173ffffffffffffffffffffffffffffffffffffffff160361161e576040517f08c379a000000000000000000000000000000000000000000000000000000000815260040161161590612e65565b60405180910390fd5b61162781611bb6565b50565b6000811161166d576040517f08c379a000000000000000000000000000000000000000000000000000000000815260040161166490612ed1565b60405180910390fd5b6003600081548092919061168090612ef1565b91905055506000600560006003548152602001908152602001600020905060405180610180016040528060035481526020018260010160009054906101000a900473ffffffffffffffffffffffffffffffffffffffff1673ffffffffffffffffffffffffffffffffffffffff168152602001826002015481526020013373ffffffffffffffffffffffffffffffffffffffff1681526020018260040160009054906101000a900473ffffffffffffffffffffffffffffffffffffffff1673ffffffffffffffffffffffffffffffffffffffff1681526020018b8b8080601f016020809104026020016040519081016040528093929190818152602001838380828437600081840152601f19601f82011690508083019250505050505050815260200189898080601f016020809104026020016040519081016040528093929190818152602001838380828437600081840152601f19601f82011690508083019250505050505050815260200187878080601f016020809104026020016040519081016040528093929190818152602001838380828437600081840152601f19601f82011690508083019250505050505050815260200185858080601f016020809104026020016040519081016040528093929190818152602001838380828437600081840152601f19601f8201169050808301925050505050505081526020018381526020016000600481111561189a576118996120a1565b5b815260200182600b0180546118ae9061243d565b80601f01602080910402602001604051908101604052809291908181526020018280546118da9061243d565b80156119275780601f106118fc57610100808354040283529160200191611927565b820191906000526020600020905b81548152906001019060200180831161190a57829003601f168201915b50505050508152506005600060035481526020019081526020016000206000820151816000015560208201518160010160006101000a81548173ffffffffffffffffffffffffffffffffffffffff021916908373ffffffffffffffffffffffffffffffffffffffff1602179055506040820151816002015560608201518160030160006101000a81548173ffffffffffffffffffffffffffffffffffffffff021916908373ffffffffffffffffffffffffffffffffffffffff16021790555060808201518160040160006101000a81548173ffffffffffffffffffffffffffffffffffffffff021916908373ffffffffffffffffffffffffffffffffffffffff16021790555060a0820151816005019081611a429190612b6c565b5060c0820151816006019081611a589190612b6c565b5060e0820151816007019081611a6e9190612b6c565b50610100820151816008019081611a859190612b6c565b50610120820151816009015561014082015181600a0160006101000a81548160ff02191690836004811115611abd57611abc6120a1565b5b021790555061016082015181600b019081611ad89190612b6c565b509050507fe3bed06da1023c776f8cdc8458ab8e3f34bf3569343140f85ff43afdd76da02d6003548260020154338d8d8d8d8b8b6000604051611b249a99989796959493929190612f39565b60405180910390a150505050505050505050565b611b40611cfe565b73ffffffffffffffffffffffffffffffffffffffff16611b5e61051e565b73ffffffffffffffffffffffffffffffffffffffff1614611bb4576040517f08c379a0000000000000000000000000000000000000000000000000000000008152600401611bab9061300f565b60405180910390fd5b565b60008060009054906101000a900473ffffffffffffffffffffffffffffffffffffffff169050816000806101000a81548173ffffffffffffffffffffffffffffffffffffffff021916908373ffffffffffffffffffffffffffffffffffffffff1602179055508173ffffffffffffffffffffffffffffffffffffffff168173ffffffffffffffffffffffffffffffffffffffff167f8be0079c531659141344cd1fd0a4f28419497f9722a3daafe3b4186f6b6457e060405160405180910390a35050565b600260015403611cbf576040517f08c379a0000000000000000000000000000000000000000000000000000000008152600401611cb69061307b565b60405180910390fd5b6002600181905550565b60018081905550565b60008183611ce0919061309b565b905092915050565b60008183611cf69190612acf565b905092915050565b600033905090565b600080fd5b600080fd5b600073ffffffffffffffffffffffffffffffffffffffff82169050919050565b6000611d3b82611d10565b9050919050565b611d4b81611d30565b8114611d5657600080fd5b50565b600081359050611d6881611d42565b92915050565b600060208284031215611d8457611d83611d06565b5b6000611d9284828501611d59565b91505092915050565b600081519050919050565b600082825260208201905092915050565b60005b83811015611dd5578082015181840152602081019050611dba565b60008484015250505050565b6000601f19601f8301169050919050565b6000611dfd82611d9b565b611e078185611da6565b9350611e17818560208601611db7565b611e2081611de1565b840191505092915050565b60008115159050919050565b611e4081611e2b565b82525050565b60006040820190508181036000830152611e608185611df2565b9050611e6f6020830184611e37565b9392505050565b6000611e8182611d10565b9050919050565b611e9181611e76565b82525050565b6000602082019050611eac6000830184611e88565b92915050565b6000819050919050565b611ec581611eb2565b8114611ed057600080fd5b50565b600081359050611ee281611ebc565b92915050565b600060208284031215611efe57611efd611d06565b5b6000611f0c84828501611ed3565b91505092915050565b611f1e81611eb2565b82525050565b6000602082019050611f396000830184611f15565b92915050565b611f4881611d30565b82525050565b6000602082019050611f636000830184611f3f565b92915050565b600080fd5b600080fd5b600080fd5b60008083601f840112611f8e57611f8d611f69565b5b8235905067ffffffffffffffff811115611fab57611faa611f6e565b5b602083019150836001820283011115611fc757611fc6611f73565b5b9250929050565b60008060008060608587031215611fe857611fe7611d06565b5b6000611ff687828801611ed3565b945050602061200787828801611ed3565b935050604085013567ffffffffffffffff81111561202857612027611d0b565b5b61203487828801611f78565b925092505092959194509250565b6000819050919050565b600061206761206261205d84611d10565b612042565b611d10565b9050919050565b60006120798261204c565b9050919050565b600061208b8261206e565b9050919050565b61209b81612080565b82525050565b7f4e487b7100000000000000000000000000000000000000000000000000000000600052602160045260246000fd5b600581106120e1576120e06120a1565b5b50565b60008190506120f2826120d0565b919050565b6000612102826120e4565b9050919050565b612112816120f7565b82525050565b60006101808201905061212e600083018f611f15565b61213b602083018e612092565b612148604083018d611f15565b612155606083018c611e88565b612162608083018b611e88565b81810360a0830152612174818a611df2565b905081810360c08301526121888189611df2565b905081810360e083015261219c8188611df2565b90508181036101008301526121b18187611df2565b90506121c1610120830186611f15565b6121cf610140830185612109565b8181036101608301526121e28184611df2565b90509d9c50505050505050505050505050565b6121fe81611e76565b811461220957600080fd5b50565b60008135905061221b816121f5565b92915050565b60008060006040848603121561223a57612239611d06565b5b60006122488682870161220c565b935050602084013567ffffffffffffffff81111561226957612268611d0b565b5b61227586828701611f78565b92509250509250925092565b600061228c82611d30565b9050919050565b61229c81612281565b81146122a757600080fd5b50565b6000813590506122b981612293565b92915050565b6000806000606084860312156122d8576122d7611d06565b5b60006122e6868287016122aa565b93505060206122f786828701611ed3565b925050604061230886828701611ed3565b9150509250925092565b600080600080600080600080600060a08a8c03121561233457612333611d06565b5b60008a013567ffffffffffffffff81111561235257612351611d0b565b5b61235e8c828d01611f78565b995099505060208a013567ffffffffffffffff81111561238157612380611d0b565b5b61238d8c828d01611f78565b975097505060408a013567ffffffffffffffff8111156123b0576123af611d0b565b5b6123bc8c828d01611f78565b955095505060608a013567ffffffffffffffff8111156123df576123de611d0b565b5b6123eb8c828d01611f78565b935093505060806123fe8c828d01611ed3565b9150509295985092959850929598565b7f4e487b7100000000000000000000000000000000000000000000000000000000600052602260045260246000fd5b6000600282049050600182168061245557607f821691505b6020821081036124685761246761240e565b5b50919050565b7f496e636f72726563742072617465206e756d6265720000000000000000000000600082015250565b60006124a4601583611da6565b91506124af8261246e565b602082019050919050565b600060208201905081810360008301526124d381612497565b9050919050565b60006040820190506124ef6000830185611f15565b6124fc6020830184611f15565b9392505050565b7f4e6f7420417574686f72697a6564000000000000000000000000000000000000600082015250565b6000612539600e83611da6565b915061254482612503565b602082019050919050565b600060208201905081810360008301526125688161252c565b9050919050565b7f446f65736e277420657869737400000000000000000000000000000000000000600082015250565b60006125a5600d83611da6565b91506125b08261256f565b602082019050919050565b600060208201905081810360008301526125d481612598565b9050919050565b7f416c726561647920736f6c640000000000000000000000000000000000000000600082015250565b6000612611600c83611da6565b915061261c826125db565b602082019050919050565b6000602082019050818103600083015261264081612604565b9050919050565b600082905092915050565b7f4e487b7100000000000000000000000000000000000000000000000000000000600052604160045260246000fd5b60008190508160005260206000209050919050565b60006020601f8301049050919050565b600082821b905092915050565b6000600883026126e37fffffffffffffffffffffffffffffffffffffffffffffffffffffffffffffffff826126a6565b6126ed86836126a6565b95508019841693508086168417925050509392505050565b600061272061271b61271684611eb2565b612042565b611eb2565b9050919050565b6000819050919050565b61273a83612705565b61274e61274682612727565b8484546126b3565b825550505050565b600090565b612763612756565b61276e818484612731565b505050565b5b818110156127925761278760008261275b565b600181019050612774565b5050565b601f8211156127d7576127a881612681565b6127b184612696565b810160208510156127c0578190505b6127d46127cc85612696565b830182612773565b50505b505050565b600082821c905092915050565b60006127fa600019846008026127dc565b1980831691505092915050565b600061281383836127e9565b9150826002028217905092915050565b61282d8383612647565b67ffffffffffffffff81111561284657612845612652565b5b612850825461243d565b61285b828285612796565b6000601f83116001811461288a5760008415612878578287013590505b6128828582612807565b8655506128ea565b601f19841661289886612681565b60005b828110156128c05784890135825560018201915060208501945060208101905061289b565b868310156128dd57848901356128d9601f8916826127e9565b8355505b6001600288020188555050505b50505050505050565b600081546129008161243d565b61290a8186611da6565b94506001821660008114612925576001811461293b5761296e565b60ff19831686528115156020028601935061296e565b61294485612681565b60005b8381101561296657815481890152600182019150602081019050612947565b808801955050505b50505092915050565b600060e08201905061298c600083018a611f15565b6129996020830189611f15565b6129a66040830188611e88565b81810360608301526129b881876128f3565b905081810360808301526129cc81866128f3565b905081810360a08301526129e081856128f3565b90506129ef60c0830184612109565b98975050505050505050565b7f4e487b7100000000000000000000000000000000000000000000000000000000600052601160045260246000fd5b6000612a3582611eb2565b9150612a4083611eb2565b9250828201905080821115612a5857612a576129fb565b5b92915050565b6000612a6982611eb2565b9150612a7483611eb2565b9250828202612a8281611eb2565b91508282048414831517612a9957612a986129fb565b5b5092915050565b7f4e487b7100000000000000000000000000000000000000000000000000000000600052601260045260246000fd5b6000612ada82611eb2565b9150612ae583611eb2565b925082612af557612af4612aa0565b5b828204905092915050565b7f416c726561647920726567697374657265640000000000000000000000000000600082015250565b6000612b36601283611da6565b9150612b4182612b00565b602082019050919050565b60006020820190508181036000830152612b6581612b29565b9050919050565b612b7582611d9b565b67ffffffffffffffff811115612b8e57612b8d612652565b5b612b98825461243d565b612ba3828285612796565b600060209050601f831160018114612bd65760008415612bc4578287015190505b612bce8582612807565b865550612c36565b601f198416612be486612681565b60005b82811015612c0c57848901518255600182019150602085019450602081019050612be7565b86831015612c295784890151612c25601f8916826127e9565b8355505b6001600288020188555050505b505050505050565b82818337600083830152505050565b6000612c598385611da6565b9350612c66838584612c3e565b612c6f83611de1565b840190509392505050565b60006020820190508181036000830152612c95818486612c4d565b90509392505050565b6000606082019050612cb36000830186611f3f565b612cc06020830185611f3f565b612ccd6040830184611f15565b949350505050565b7f4e6f7420656e6f75676820657468657200000000000000000000000000000000600082015250565b6000612d0b601083611da6565b9150612d1682612cd5565b602082019050919050565b60006020820190508181036000830152612d3a81612cfe565b9050919050565b600081905092915050565b50565b6000612d5c600083612d41565b9150612d6782612d4c565b600082019050919050565b6000612d7d82612d4f565b9150819050919050565b7f5472616e73666572206661696c00000000000000000000000000000000000000600082015250565b6000612dbd600d83611da6565b9150612dc882612d87565b602082019050919050565b60006020820190508181036000830152612dec81612db0565b9050919050565b7f4f776e61626c653a206e6577206f776e657220697320746865207a65726f206160008201527f6464726573730000000000000000000000000000000000000000000000000000602082015250565b6000612e4f602683611da6565b9150612e5a82612df3565b604082019050919050565b60006020820190508181036000830152612e7e81612e42565b9050919050565b7f496e636f72726563742070726963650000000000000000000000000000000000600082015250565b6000612ebb600f83611da6565b9150612ec682612e85565b602082019050919050565b60006020820190508181036000830152612eea81612eae565b9050919050565b6000612efc82611eb2565b91507fffffffffffffffffffffffffffffffffffffffffffffffffffffffffffffffff8203612f2e57612f2d6129fb565b5b600182019050919050565b600060e082019050612f4e600083018d611f15565b612f5b602083018c611f15565b612f68604083018b611e88565b8181036060830152612f7b81898b612c4d565b90508181036080830152612f90818789612c4d565b905081810360a0830152612fa5818587612c4d565b9050612fb460c0830184612109565b9b9a5050505050505050505050565b7f4f776e61626c653a2063616c6c6572206973206e6f7420746865206f776e6572600082015250565b6000612ff9602083611da6565b915061300482612fc3565b602082019050919050565b6000602082019050818103600083015261302881612fec565b9050919050565b7f5265656e7472616e637947756172643a207265656e7472616e742063616c6c00600082015250565b6000613065601f83611da6565b91506130708261302f565b602082019050919050565b6000602082019050818103600083015261309481613058565b9050919050565b60006130a682611eb2565b91506130b183611eb2565b92508282039050818111156130c9576130c86129fb565b5b9291505056fea2646970667358221220995ce41c6c3c1b64eb55665f272766eaabc59dda549885fc985967ea1a551cc664736f6c63430008130033",
  "linkReferences": {},
  "deployedLinkReferences": {}
}