{
  "_format": "hh-sol-artifact-1",
  "contractName": "Marketplace",
  "sourceName": "contracts/Marketplace.sol",
  "abi": [
    {
      "inputs": [
        {
          "internalType": "uint256",
          "name": "_feeRate",
          "type": "uint256"
        }
      ],
      "stateMutability": "nonpayable",
      "type": "constructor"
    },
    {
      "anonymous": false,
      "inputs": [
        {
          "indexed": true,
          "internalType": "address",
          "name": "_addr",
          "type": "address"
        },
        {
          "indexed": false,
          "internalType": "string",
          "name": "_name",
          "type": "string"
        }
      ],
      "name": "ExpertAdded",
      "type": "event"
    },
    {
      "anonymous": false,
      "inputs": [
        {
          "indexed": false,
          "internalType": "uint256",
          "name": "itemId",
          "type": "uint256"
        },
        {
          "indexed": false,
          "internalType": "uint256",
          "name": "tokenId",
          "type": "uint256"
        },
        {
          "indexed": false,
          "internalType": "address payable",
          "name": "seller",
          "type": "address"
        },
        {
          "indexed": false,
          "internalType": "string",
          "name": "brand",
          "type": "string"
        },
        {
          "indexed": false,
          "internalType": "string",
          "name": "model",
          "type": "string"
        },
        {
          "indexed": false,
          "internalType": "string",
          "name": "serial",
          "type": "string"
        },
        {
          "indexed": false,
          "internalType": "enum Marketplace.ItemStatus",
          "name": "status",
          "type": "uint8"
        }
      ],
      "name": "ItemUpdated",
      "type": "event"
    },
    {
      "anonymous": false,
      "inputs": [
        {
          "indexed": true,
          "internalType": "address",
          "name": "previousOwner",
          "type": "address"
        },
        {
          "indexed": true,
          "internalType": "address",
          "name": "newOwner",
          "type": "address"
        }
      ],
      "name": "OwnershipTransferred",
      "type": "event"
    },
    {
      "anonymous": false,
      "inputs": [
        {
          "indexed": false,
          "internalType": "uint256",
          "name": "_prev",
          "type": "uint256"
        },
        {
          "indexed": false,
          "internalType": "uint256",
          "name": "_profitRate",
          "type": "uint256"
        }
      ],
      "name": "UpdatedProfitRate",
      "type": "event"
    },
    {
      "inputs": [
        {
          "internalType": "address payable",
          "name": "_addr",
          "type": "address"
        },
        {
          "internalType": "string",
          "name": "_name",
          "type": "string"
        }
      ],
      "name": "addExpert",
      "outputs": [],
      "stateMutability": "nonpayable",
      "type": "function"
    },
    {
      "inputs": [
        {
          "internalType": "string",
          "name": "_brand",
          "type": "string"
        },
        {
          "internalType": "string",
          "name": "_model",
          "type": "string"
        },
        {
          "internalType": "string",
          "name": "_description",
          "type": "string"
        },
        {
          "internalType": "string",
          "name": "_serial",
          "type": "string"
        },
        {
          "internalType": "uint256",
          "name": "_price",
          "type": "uint256"
        }
      ],
      "name": "addItem",
      "outputs": [],
      "stateMutability": "nonpayable",
      "type": "function"
    },
    {
      "inputs": [
        {
          "internalType": "contract IERC721",
          "name": "_certificate",
          "type": "address"
        },
        {
          "internalType": "uint256",
          "name": "_tokenId",
          "type": "uint256"
        },
        {
          "internalType": "uint256",
          "name": "_itemId",
          "type": "uint256"
        }
      ],
      "name": "addToken",
      "outputs": [],
      "stateMutability": "nonpayable",
      "type": "function"
    },
    {
      "inputs": [
        {
          "internalType": "uint256",
          "name": "_itemId",
          "type": "uint256"
        }
      ],
      "name": "buyItem",
      "outputs": [],
      "stateMutability": "payable",
      "type": "function"
    },
    {
      "inputs": [
        {
          "internalType": "address",
          "name": "",
          "type": "address"
        }
      ],
      "name": "experts",
      "outputs": [
        {
          "internalType": "string",
          "name": "name",
          "type": "string"
        },
        {
          "internalType": "bool",
          "name": "authorized",
          "type": "bool"
        }
      ],
      "stateMutability": "view",
      "type": "function"
    },
    {
      "inputs": [],
      "name": "feeAccount",
      "outputs": [
        {
          "internalType": "address payable",
          "name": "",
          "type": "address"
        }
      ],
      "stateMutability": "view",
      "type": "function"
    },
    {
      "inputs": [],
      "name": "feeRate",
      "outputs": [
        {
          "internalType": "uint256",
          "name": "",
          "type": "uint256"
        }
      ],
      "stateMutability": "view",
      "type": "function"
    },
    {
      "inputs": [
        {
          "internalType": "uint256",
          "name": "_itemId",
          "type": "uint256"
        }
      ],
      "name": "getTotalPrice",
      "outputs": [
        {
          "internalType": "uint256",
          "name": "",
          "type": "uint256"
        }
      ],
      "stateMutability": "view",
      "type": "function"
    },
    {
      "inputs": [],
      "name": "itemCount",
      "outputs": [
        {
          "internalType": "uint256",
          "name": "",
          "type": "uint256"
        }
      ],
      "stateMutability": "view",
      "type": "function"
    },
    {
      "inputs": [
        {
          "internalType": "uint256",
          "name": "",
          "type": "uint256"
        }
      ],
      "name": "items",
      "outputs": [
        {
          "internalType": "uint256",
          "name": "itemId",
          "type": "uint256"
        },
        {
          "internalType": "contract IERC721",
          "name": "certificate",
          "type": "address"
        },
        {
          "internalType": "uint256",
          "name": "tokenId",
          "type": "uint256"
        },
        {
          "internalType": "address payable",
          "name": "seller",
          "type": "address"
        },
        {
          "internalType": "address payable",
          "name": "expert",
          "type": "address"
        },
        {
          "internalType": "string",
          "name": "brand",
          "type": "string"
        },
        {
          "internalType": "string",
          "name": "model",
          "type": "string"
        },
        {
          "internalType": "string",
          "name": "description",
          "type": "string"
        },
        {
          "internalType": "string",
          "name": "serial",
          "type": "string"
        },
        {
          "internalType": "uint256",
          "name": "price",
          "type": "uint256"
        },
        {
          "internalType": "enum Marketplace.ItemStatus",
          "name": "status",
          "type": "uint8"
        },
        {
          "internalType": "string",
          "name": "ipfsUrl",
          "type": "string"
        }
      ],
      "stateMutability": "view",
      "type": "function"
    },
    {
      "inputs": [],
      "name": "owner",
      "outputs": [
        {
          "internalType": "address",
          "name": "",
          "type": "address"
        }
      ],
      "stateMutability": "view",
      "type": "function"
    },
    {
      "inputs": [],
      "name": "renounceOwnership",
      "outputs": [],
      "stateMutability": "nonpayable",
      "type": "function"
    },
    {
      "inputs": [
        {
          "internalType": "address",
          "name": "newOwner",
          "type": "address"
        }
      ],
      "name": "transferOwnership",
      "outputs": [],
      "stateMutability": "nonpayable",
      "type": "function"
    },
    {
      "inputs": [
        {
          "internalType": "uint256",
          "name": "_itemId",
          "type": "uint256"
        },
        {
          "internalType": "uint256",
          "name": "_status",
          "type": "uint256"
        },
        {
          "internalType": "string",
          "name": "_ipfsUrl",
          "type": "string"
        }
      ],
      "name": "updateItem",
      "outputs": [],
      "stateMutability": "nonpayable",
      "type": "function"
    },
    {
      "inputs": [
        {
          "internalType": "uint256",
          "name": "_feeRate",
          "type": "uint256"
        }
      ],
      "name": "updateProfitRate",
      "outputs": [],
      "stateMutability": "nonpayable",
      "type": "function"
    }
  ],
  "bytecode": "0x60a06040523480156200001157600080fd5b5060405162003162380380620031628339818101604052810190620000379190620001ac565b620000576200004b620000a060201b60201c565b620000a860201b60201c565b600180819055503373ffffffffffffffffffffffffffffffffffffffff1660808173ffffffffffffffffffffffffffffffffffffffff16815250508060028190555050620001de565b600033905090565b60008060009054906101000a900473ffffffffffffffffffffffffffffffffffffffff169050816000806101000a81548173ffffffffffffffffffffffffffffffffffffffff021916908373ffffffffffffffffffffffffffffffffffffffff1602179055508173ffffffffffffffffffffffffffffffffffffffff168173ffffffffffffffffffffffffffffffffffffffff167f8be0079c531659141344cd1fd0a4f28419497f9722a3daafe3b4186f6b6457e060405160405180910390a35050565b600080fd5b6000819050919050565b620001868162000171565b81146200019257600080fd5b50565b600081519050620001a6816200017b565b92915050565b600060208284031215620001c557620001c46200016c565b5b6000620001d58482850162000195565b91505092915050565b608051612f616200020160003960008181610440015261134c0152612f616000f3fe6080604052600436106100e85760003560e01c8063ab9885741161008a578063dee1f2af11610059578063dee1f2af146102ee578063e7fb74c714610317578063f2fde38b14610333578063fbedd1141461035c576100e8565b8063ab98857414610217578063bfb231d214610240578063ca7dd37514610288578063cf338821146102c5576100e8565b80636bfb0d01116100c65780636bfb0d011461017f578063715018a6146101aa5780638da5cb5b146101c1578063978bbdb9146101ec576100e8565b806312572f5a146100ed57806365e17c9d1461012b5780636b9d838b14610156575b600080fd5b3480156100f957600080fd5b50610114600480360381019061010f9190611c7c565b610385565b604051610122929190611d54565b60405180910390f35b34801561013757600080fd5b5061014061043e565b60405161014d9190611da5565b60405180910390f35b34801561016257600080fd5b5061017d60048036038101906101789190611df6565b610462565b005b34801561018b57600080fd5b50610194610504565b6040516101a19190611e32565b60405180910390f35b3480156101b657600080fd5b506101bf61050a565b005b3480156101cd57600080fd5b506101d661051e565b6040516101e39190611e5c565b60405180910390f35b3480156101f857600080fd5b50610201610547565b60405161020e9190611e32565b60405180910390f35b34801561022357600080fd5b5061023e60048036038101906102399190611edc565b61054d565b005b34801561024c57600080fd5b5061026760048036038101906102629190611df6565b610844565b60405161027f9c9b9a99989796959493929190612026565b60405180910390f35b34801561029457600080fd5b506102af60048036038101906102aa9190611df6565b610bb9565b6040516102bc9190611e32565b60405180910390f35b3480156102d157600080fd5b506102ec60048036038101906102e7919061212f565b610cda565b005b3480156102fa57600080fd5b50610315600480360381019061031091906121cd565b610eda565b005b610331600480360381019061032c9190611df6565b611106565b005b34801561033f57600080fd5b5061035a60048036038101906103559190611c7c565b6114e1565b005b34801561036857600080fd5b50610383600480360381019061037e9190612220565b611564565b005b60046020528060005260406000206000915090508060000180546103a89061234b565b80601f01602080910402602001604051908101604052809291908181526020018280546103d49061234b565b80156104215780601f106103f657610100808354040283529160200191610421565b820191906000526020600020905b81548152906001019060200180831161040457829003601f168201915b5050505050908060010160009054906101000a900460ff16905082565b7f000000000000000000000000000000000000000000000000000000000000000081565b61046a611a72565b60008111801561047a5750606481105b6104b9576040517f08c379a00000000000000000000000000000000000000000000000000000000081526004016104b0906123c8565b60405180910390fd5b60006002549050816002819055507fee54bd5a5f458c777ec4afad29cb0e8bdaaab93f017dea2497559b036e40a0ff81836040516104f89291906123e8565b60405180910390a15050565b60035481565b610512611a72565b61051c6000611af0565b565b60008060009054906101000a900473ffffffffffffffffffffffffffffffffffffffff16905090565b60025481565b60011515600460003373ffffffffffffffffffffffffffffffffffffffff1673ffffffffffffffffffffffffffffffffffffffff16815260200190815260200160002060010160009054906101000a900460ff16151514806105e157506105b261051e565b73ffffffffffffffffffffffffffffffffffffffff163373ffffffffffffffffffffffffffffffffffffffff16145b610620576040517f08c379a00000000000000000000000000000000000000000000000000000000081526004016106179061245d565b60405180910390fd5b8360008111801561063357506003548111155b610672576040517f08c379a0000000000000000000000000000000000000000000000000000000008152600401610669906124c9565b60405180910390fd5b60048081111561068557610684611faf565b5b60056000838152602001908152602001600020600a0160009054906101000a900460ff1660048111156106bb576106ba611faf565b5b036106fb576040517f08c379a00000000000000000000000000000000000000000000000000000000081526004016106f290612535565b60405180910390fd5b6000600560008781526020019081526020016000209050600060028603610720573390505b808260040160006101000a81548173ffffffffffffffffffffffffffffffffffffffff021916908373ffffffffffffffffffffffffffffffffffffffff16021790555085600481111561077657610775611faf565b5b82600a0160006101000a81548160ff0219169083600481111561079c5761079b611faf565b5b0217905550848483600b0191826107b4929190612731565b507fe3bed06da1023c776f8cdc8458ab8e3f34bf3569343140f85ff43afdd76da02d8783600201548460030160009054906101000a900473ffffffffffffffffffffffffffffffffffffffff168560050186600601876008018c60048111156108205761081f611faf565b5b6040516108339796959493929190612885565b60405180910390a150505050505050565b60056020528060005260406000206000915090508060000154908060010160009054906101000a900473ffffffffffffffffffffffffffffffffffffffff16908060020154908060030160009054906101000a900473ffffffffffffffffffffffffffffffffffffffff16908060040160009054906101000a900473ffffffffffffffffffffffffffffffffffffffff16908060050180546108e59061234b565b80601f01602080910402602001604051908101604052809291908181526020018280546109119061234b565b801561095e5780601f106109335761010080835404028352916020019161095e565b820191906000526020600020905b81548152906001019060200180831161094157829003601f168201915b5050505050908060060180546109739061234b565b80601f016020809104026020016040519081016040528092919081815260200182805461099f9061234b565b80156109ec5780601f106109c1576101008083540402835291602001916109ec565b820191906000526020600020905b8154815290600101906020018083116109cf57829003601f168201915b505050505090806007018054610a019061234b565b80601f0160208091040260200160405190810160405280929190818152602001828054610a2d9061234b565b8015610a7a5780601f10610a4f57610100808354040283529160200191610a7a565b820191906000526020600020905b815481529060010190602001808311610a5d57829003601f168201915b505050505090806008018054610a8f9061234b565b80601f0160208091040260200160405190810160405280929190818152602001828054610abb9061234b565b8015610b085780601f10610add57610100808354040283529160200191610b08565b820191906000526020600020905b815481529060010190602001808311610aeb57829003601f168201915b50505050509080600901549080600a0160009054906101000a900460ff169080600b018054610b369061234b565b80601f0160208091040260200160405190810160405280929190818152602001828054610b629061234b565b8015610baf5780601f10610b8457610100808354040283529160200191610baf565b820191906000526020600020905b815481529060010190602001808311610b9257829003601f168201915b505050505090508c565b600081600081118015610bce57506003548111155b610c0d576040517f08c379a0000000000000000000000000000000000000000000000000000000008152600401610c04906124c9565b60405180910390fd5b600480811115610c2057610c1f611faf565b5b60056000838152602001908152602001600020600a0160009054906101000a900460ff166004811115610c5657610c55611faf565b5b03610c96576040517f08c379a0000000000000000000000000000000000000000000000000000000008152600401610c8d90612535565b60405180910390fd5b60646002546064610ca79190612938565b6005600086815260200190815260200160002060090154610cc8919061296c565b610cd291906129dd565b915050919050565b610ce2611a72565b600073ffffffffffffffffffffffffffffffffffffffff168373ffffffffffffffffffffffffffffffffffffffff1603610d1b57600080fd5b60011515600460008573ffffffffffffffffffffffffffffffffffffffff1673ffffffffffffffffffffffffffffffffffffffff16815260200190815260200160002060010160009054906101000a900460ff16151503610db1576040517f08c379a0000000000000000000000000000000000000000000000000000000008152600401610da890612a5a565b60405180910390fd5b604051806040016040528083838080601f016020809104026020016040519081016040528093929190818152602001838380828437600081840152601f19601f82011690508083019250505050505050815260200160011515815250600460008573ffffffffffffffffffffffffffffffffffffffff1673ffffffffffffffffffffffffffffffffffffffff1681526020019081526020016000206000820151816000019081610e619190612a7a565b5060208201518160010160006101000a81548160ff0219169083151502179055509050508273ffffffffffffffffffffffffffffffffffffffff167f2cc99b38d2870180a408f7f0fdab27eab3c7ac43db186dc38ebe12c7dc7890c68383604051610ecd929190612b88565b60405180910390a2505050565b803373ffffffffffffffffffffffffffffffffffffffff166005600083815260200190815260200160002060030160009054906101000a900473ffffffffffffffffffffffffffffffffffffffff1673ffffffffffffffffffffffffffffffffffffffff1614610f7f576040517f08c379a0000000000000000000000000000000000000000000000000000000008152600401610f769061245d565b60405180910390fd5b610f87611bb4565b60006005600084815260200190815260200160002090508473ffffffffffffffffffffffffffffffffffffffff166323b872dd3330876040518463ffffffff1660e01b8152600401610fdb93929190612bac565b600060405180830381600087803b158015610ff557600080fd5b505af1158015611009573d6000803e3d6000fd5b50505050848160010160006101000a81548173ffffffffffffffffffffffffffffffffffffffff021916908373ffffffffffffffffffffffffffffffffffffffff160217905550838160020181905550600381600a0160006101000a81548160ff0219169083600481111561108157611080611faf565b5b02179055507fe3bed06da1023c776f8cdc8458ab8e3f34bf3569343140f85ff43afdd76da02d83858360030160009054906101000a900473ffffffffffffffffffffffffffffffffffffffff1684600501856006018660080160036040516110ef9796959493929190612885565b60405180910390a150611100611c03565b50505050565b61110e611bb4565b8060008111801561112157506003548111155b611160576040517f08c379a0000000000000000000000000000000000000000000000000000000008152600401611157906124c9565b60405180910390fd5b60048081111561117357611172611faf565b5b60056000838152602001908152602001600020600a0160009054906101000a900460ff1660048111156111a9576111a8611faf565b5b036111e9576040517f08c379a00000000000000000000000000000000000000000000000000000000081526004016111e090612535565b60405180910390fd5b6000600560008481526020019081526020016000209050600061120b84610bb9565b9050600082600901548261121f9190612be3565b905081341015611264576040517f08c379a000000000000000000000000000000000000000000000000000000000815260040161125b90612c63565b60405180910390fd5b8260030160009054906101000a900473ffffffffffffffffffffffffffffffffffffffff1673ffffffffffffffffffffffffffffffffffffffff166108fc84600901549081150290604051600060405180830381858888f193505050501580156112d2573d6000803e3d6000fd5b508260040160009054906101000a900473ffffffffffffffffffffffffffffffffffffffff1673ffffffffffffffffffffffffffffffffffffffff166108fc60028361131e91906129dd565b9081150290604051600060405180830381858888f19350505050158015611349573d6000803e3d6000fd5b507f000000000000000000000000000000000000000000000000000000000000000073ffffffffffffffffffffffffffffffffffffffff166108fc60028361139191906129dd565b9081150290604051600060405180830381858888f193505050501580156113bc573d6000803e3d6000fd5b50600483600a0160006101000a81548160ff021916908360048111156113e5576113e4611faf565b5b02179055508260010160009054906101000a900473ffffffffffffffffffffffffffffffffffffffff1673ffffffffffffffffffffffffffffffffffffffff166323b872dd303386600201546040518463ffffffff1660e01b815260040161144f93929190612bac565b600060405180830381600087803b15801561146957600080fd5b505af115801561147d573d6000803e3d6000fd5b505050507fe3bed06da1023c776f8cdc8458ab8e3f34bf3569343140f85ff43afdd76da02d8584600201543386600501876006018860080160046040516114ca9796959493929190612885565b60405180910390a1505050506114de611c03565b50565b6114e9611a72565b600073ffffffffffffffffffffffffffffffffffffffff168173ffffffffffffffffffffffffffffffffffffffff1603611558576040517f08c379a000000000000000000000000000000000000000000000000000000000815260040161154f90612cf5565b60405180910390fd5b61156181611af0565b50565b600081116115a7576040517f08c379a000000000000000000000000000000000000000000000000000000000815260040161159e90612d61565b60405180910390fd5b600360008154809291906115ba90612d81565b91905055506000600560006003548152602001908152602001600020905060405180610180016040528060035481526020018260010160009054906101000a900473ffffffffffffffffffffffffffffffffffffffff1673ffffffffffffffffffffffffffffffffffffffff168152602001826002015481526020013373ffffffffffffffffffffffffffffffffffffffff1681526020018260040160009054906101000a900473ffffffffffffffffffffffffffffffffffffffff1673ffffffffffffffffffffffffffffffffffffffff1681526020018b8b8080601f016020809104026020016040519081016040528093929190818152602001838380828437600081840152601f19601f82011690508083019250505050505050815260200189898080601f016020809104026020016040519081016040528093929190818152602001838380828437600081840152601f19601f82011690508083019250505050505050815260200187878080601f016020809104026020016040519081016040528093929190818152602001838380828437600081840152601f19601f82011690508083019250505050505050815260200185858080601f016020809104026020016040519081016040528093929190818152602001838380828437600081840152601f19601f820116905080830192505050505050508152602001838152602001600060048111156117d4576117d3611faf565b5b815260200182600b0180546117e89061234b565b80601f01602080910402602001604051908101604052809291908181526020018280546118149061234b565b80156118615780601f1061183657610100808354040283529160200191611861565b820191906000526020600020905b81548152906001019060200180831161184457829003601f168201915b50505050508152506005600060035481526020019081526020016000206000820151816000015560208201518160010160006101000a81548173ffffffffffffffffffffffffffffffffffffffff021916908373ffffffffffffffffffffffffffffffffffffffff1602179055506040820151816002015560608201518160030160006101000a81548173ffffffffffffffffffffffffffffffffffffffff021916908373ffffffffffffffffffffffffffffffffffffffff16021790555060808201518160040160006101000a81548173ffffffffffffffffffffffffffffffffffffffff021916908373ffffffffffffffffffffffffffffffffffffffff16021790555060a082015181600501908161197c9190612a7a565b5060c08201518160060190816119929190612a7a565b5060e08201518160070190816119a89190612a7a565b506101008201518160080190816119bf9190612a7a565b50610120820151816009015561014082015181600a0160006101000a81548160ff021916908360048111156119f7576119f6611faf565b5b021790555061016082015181600b019081611a129190612a7a565b509050507fe3bed06da1023c776f8cdc8458ab8e3f34bf3569343140f85ff43afdd76da02d6003548260020154338d8d8d8d8b8b6000604051611a5e9a99989796959493929190612dc9565b60405180910390a150505050505050505050565b611a7a611c0c565b73ffffffffffffffffffffffffffffffffffffffff16611a9861051e565b73ffffffffffffffffffffffffffffffffffffffff1614611aee576040517f08c379a0000000000000000000000000000000000000000000000000000000008152600401611ae590612e9f565b60405180910390fd5b565b60008060009054906101000a900473ffffffffffffffffffffffffffffffffffffffff169050816000806101000a81548173ffffffffffffffffffffffffffffffffffffffff021916908373ffffffffffffffffffffffffffffffffffffffff1602179055508173ffffffffffffffffffffffffffffffffffffffff168173ffffffffffffffffffffffffffffffffffffffff167f8be0079c531659141344cd1fd0a4f28419497f9722a3daafe3b4186f6b6457e060405160405180910390a35050565b600260015403611bf9576040517f08c379a0000000000000000000000000000000000000000000000000000000008152600401611bf090612f0b565b60405180910390fd5b6002600181905550565b60018081905550565b600033905090565b600080fd5b600080fd5b600073ffffffffffffffffffffffffffffffffffffffff82169050919050565b6000611c4982611c1e565b9050919050565b611c5981611c3e565b8114611c6457600080fd5b50565b600081359050611c7681611c50565b92915050565b600060208284031215611c9257611c91611c14565b5b6000611ca084828501611c67565b91505092915050565b600081519050919050565b600082825260208201905092915050565b60005b83811015611ce3578082015181840152602081019050611cc8565b60008484015250505050565b6000601f19601f8301169050919050565b6000611d0b82611ca9565b611d158185611cb4565b9350611d25818560208601611cc5565b611d2e81611cef565b840191505092915050565b60008115159050919050565b611d4e81611d39565b82525050565b60006040820190508181036000830152611d6e8185611d00565b9050611d7d6020830184611d45565b9392505050565b6000611d8f82611c1e565b9050919050565b611d9f81611d84565b82525050565b6000602082019050611dba6000830184611d96565b92915050565b6000819050919050565b611dd381611dc0565b8114611dde57600080fd5b50565b600081359050611df081611dca565b92915050565b600060208284031215611e0c57611e0b611c14565b5b6000611e1a84828501611de1565b91505092915050565b611e2c81611dc0565b82525050565b6000602082019050611e476000830184611e23565b92915050565b611e5681611c3e565b82525050565b6000602082019050611e716000830184611e4d565b92915050565b600080fd5b600080fd5b600080fd5b60008083601f840112611e9c57611e9b611e77565b5b8235905067ffffffffffffffff811115611eb957611eb8611e7c565b5b602083019150836001820283011115611ed557611ed4611e81565b5b9250929050565b60008060008060608587031215611ef657611ef5611c14565b5b6000611f0487828801611de1565b9450506020611f1587828801611de1565b935050604085013567ffffffffffffffff811115611f3657611f35611c19565b5b611f4287828801611e86565b925092505092959194509250565b6000819050919050565b6000611f75611f70611f6b84611c1e565b611f50565b611c1e565b9050919050565b6000611f8782611f5a565b9050919050565b6000611f9982611f7c565b9050919050565b611fa981611f8e565b82525050565b7f4e487b7100000000000000000000000000000000000000000000000000000000600052602160045260246000fd5b60058110611fef57611fee611faf565b5b50565b600081905061200082611fde565b919050565b600061201082611ff2565b9050919050565b61202081612005565b82525050565b60006101808201905061203c600083018f611e23565b612049602083018e611fa0565b612056604083018d611e23565b612063606083018c611d96565b612070608083018b611d96565b81810360a0830152612082818a611d00565b905081810360c08301526120968189611d00565b905081810360e08301526120aa8188611d00565b90508181036101008301526120bf8187611d00565b90506120cf610120830186611e23565b6120dd610140830185612017565b8181036101608301526120f08184611d00565b90509d9c50505050505050505050505050565b61210c81611d84565b811461211757600080fd5b50565b60008135905061212981612103565b92915050565b60008060006040848603121561214857612147611c14565b5b60006121568682870161211a565b935050602084013567ffffffffffffffff81111561217757612176611c19565b5b61218386828701611e86565b92509250509250925092565b600061219a82611c3e565b9050919050565b6121aa8161218f565b81146121b557600080fd5b50565b6000813590506121c7816121a1565b92915050565b6000806000606084860312156121e6576121e5611c14565b5b60006121f4868287016121b8565b935050602061220586828701611de1565b925050604061221686828701611de1565b9150509250925092565b600080600080600080600080600060a08a8c03121561224257612241611c14565b5b60008a013567ffffffffffffffff8111156122605761225f611c19565b5b61226c8c828d01611e86565b995099505060208a013567ffffffffffffffff81111561228f5761228e611c19565b5b61229b8c828d01611e86565b975097505060408a013567ffffffffffffffff8111156122be576122bd611c19565b5b6122ca8c828d01611e86565b955095505060608a013567ffffffffffffffff8111156122ed576122ec611c19565b5b6122f98c828d01611e86565b9350935050608061230c8c828d01611de1565b9150509295985092959850929598565b7f4e487b7100000000000000000000000000000000000000000000000000000000600052602260045260246000fd5b6000600282049050600182168061236357607f821691505b6020821081036123765761237561231c565b5b50919050565b7f496e636f72726563742072617465206e756d6265720000000000000000000000600082015250565b60006123b2601583611cb4565b91506123bd8261237c565b602082019050919050565b600060208201905081810360008301526123e1816123a5565b9050919050565b60006040820190506123fd6000830185611e23565b61240a6020830184611e23565b9392505050565b7f4e6f7420417574686f72697a6564000000000000000000000000000000000000600082015250565b6000612447600e83611cb4565b915061245282612411565b602082019050919050565b600060208201905081810360008301526124768161243a565b9050919050565b7f446f65736e277420657869737400000000000000000000000000000000000000600082015250565b60006124b3600d83611cb4565b91506124be8261247d565b602082019050919050565b600060208201905081810360008301526124e2816124a6565b9050919050565b7f416c726561647920736f6c640000000000000000000000000000000000000000600082015250565b600061251f600c83611cb4565b915061252a826124e9565b602082019050919050565b6000602082019050818103600083015261254e81612512565b9050919050565b600082905092915050565b7f4e487b7100000000000000000000000000000000000000000000000000000000600052604160045260246000fd5b60008190508160005260206000209050919050565b60006020601f8301049050919050565b600082821b905092915050565b6000600883026125f17fffffffffffffffffffffffffffffffffffffffffffffffffffffffffffffffff826125b4565b6125fb86836125b4565b95508019841693508086168417925050509392505050565b600061262e61262961262484611dc0565b611f50565b611dc0565b9050919050565b6000819050919050565b61264883612613565b61265c61265482612635565b8484546125c1565b825550505050565b600090565b612671612664565b61267c81848461263f565b505050565b5b818110156126a057612695600082612669565b600181019050612682565b5050565b601f8211156126e5576126b68161258f565b6126bf846125a4565b810160208510156126ce578190505b6126e26126da856125a4565b830182612681565b50505b505050565b600082821c905092915050565b6000612708600019846008026126ea565b1980831691505092915050565b600061272183836126f7565b9150826002028217905092915050565b61273b8383612555565b67ffffffffffffffff81111561275457612753612560565b5b61275e825461234b565b6127698282856126a4565b6000601f8311600181146127985760008415612786578287013590505b6127908582612715565b8655506127f8565b601f1984166127a68661258f565b60005b828110156127ce578489013582556001820191506020850194506020810190506127a9565b868310156127eb57848901356127e7601f8916826126f7565b8355505b6001600288020188555050505b50505050505050565b6000815461280e8161234b565b6128188186611cb4565b9450600182166000811461283357600181146128495761287c565b60ff19831686528115156020028601935061287c565b6128528561258f565b60005b8381101561287457815481890152600182019150602081019050612855565b808801955050505b50505092915050565b600060e08201905061289a600083018a611e23565b6128a76020830189611e23565b6128b46040830188611d96565b81810360608301526128c68187612801565b905081810360808301526128da8186612801565b905081810360a08301526128ee8185612801565b90506128fd60c0830184612017565b98975050505050505050565b7f4e487b7100000000000000000000000000000000000000000000000000000000600052601160045260246000fd5b600061294382611dc0565b915061294e83611dc0565b925082820190508082111561296657612965612909565b5b92915050565b600061297782611dc0565b915061298283611dc0565b925082820261299081611dc0565b915082820484148315176129a7576129a6612909565b5b5092915050565b7f4e487b7100000000000000000000000000000000000000000000000000000000600052601260045260246000fd5b60006129e882611dc0565b91506129f383611dc0565b925082612a0357612a026129ae565b5b828204905092915050565b7f416c726561647920726567697374657265640000000000000000000000000000600082015250565b6000612a44601283611cb4565b9150612a4f82612a0e565b602082019050919050565b60006020820190508181036000830152612a7381612a37565b9050919050565b612a8382611ca9565b67ffffffffffffffff811115612a9c57612a9b612560565b5b612aa6825461234b565b612ab18282856126a4565b600060209050601f831160018114612ae45760008415612ad2578287015190505b612adc8582612715565b865550612b44565b601f198416612af28661258f565b60005b82811015612b1a57848901518255600182019150602085019450602081019050612af5565b86831015612b375784890151612b33601f8916826126f7565b8355505b6001600288020188555050505b505050505050565b82818337600083830152505050565b6000612b678385611cb4565b9350612b74838584612b4c565b612b7d83611cef565b840190509392505050565b60006020820190508181036000830152612ba3818486612b5b565b90509392505050565b6000606082019050612bc16000830186611e4d565b612bce6020830185611e4d565b612bdb6040830184611e23565b949350505050565b6000612bee82611dc0565b9150612bf983611dc0565b9250828203905081811115612c1157612c10612909565b5b92915050565b7f4e6f7420656e6f75676820657468657200000000000000000000000000000000600082015250565b6000612c4d601083611cb4565b9150612c5882612c17565b602082019050919050565b60006020820190508181036000830152612c7c81612c40565b9050919050565b7f4f776e61626c653a206e6577206f776e657220697320746865207a65726f206160008201527f6464726573730000000000000000000000000000000000000000000000000000602082015250565b6000612cdf602683611cb4565b9150612cea82612c83565b604082019050919050565b60006020820190508181036000830152612d0e81612cd2565b9050919050565b7f496e636f72726563742070726963650000000000000000000000000000000000600082015250565b6000612d4b600f83611cb4565b9150612d5682612d15565b602082019050919050565b60006020820190508181036000830152612d7a81612d3e565b9050919050565b6000612d8c82611dc0565b91507fffffffffffffffffffffffffffffffffffffffffffffffffffffffffffffffff8203612dbe57612dbd612909565b5b600182019050919050565b600060e082019050612dde600083018d611e23565b612deb602083018c611e23565b612df8604083018b611d96565b8181036060830152612e0b81898b612b5b565b90508181036080830152612e20818789612b5b565b905081810360a0830152612e35818587612b5b565b9050612e4460c0830184612017565b9b9a5050505050505050505050565b7f4f776e61626c653a2063616c6c6572206973206e6f7420746865206f776e6572600082015250565b6000612e89602083611cb4565b9150612e9482612e53565b602082019050919050565b60006020820190508181036000830152612eb881612e7c565b9050919050565b7f5265656e7472616e637947756172643a207265656e7472616e742063616c6c00600082015250565b6000612ef5601f83611cb4565b9150612f0082612ebf565b602082019050919050565b60006020820190508181036000830152612f2481612ee8565b905091905056fea26469706673582212208c5a7f8552c642b19cdd8845a77e3467c80cdb87c7b9aa4f061d9821fd23dc8d64736f6c63430008130033",
  "linkReferences": {},
  "deployedLinkReferences": {}
}