{
  "_format": "hh-sol-artifact-1",
  "contractName": "NFTCollection",
  "sourceName": "contracts/NFTCollection.sol",
  "abi": [
    {
      "inputs": [
        {
          "internalType": "string",
          "name": "_name",
          "type": "string"
        },
        {
          "internalType": "string",
          "name": "_symbol",
          "type": "string"
        }
      ],
      "stateMutability": "nonpayable",
      "type": "constructor"
    },
    {
      "anonymous": false,
      "inputs": [
        {
          "indexed": true,
          "internalType": "address",
          "name": "owner",
          "type": "address"
        },
        {
          "indexed": true,
          "internalType": "address",
          "name": "approved",
          "type": "address"
        },
        {
          "indexed": true,
          "internalType": "uint256",
          "name": "tokenId",
          "type": "uint256"
        }
      ],
      "name": "Approval",
      "type": "event"
    },
    {
      "anonymous": false,
      "inputs": [
        {
          "indexed": true,
          "internalType": "address",
          "name": "owner",
          "type": "address"
        },
        {
          "indexed": true,
          "internalType": "address",
          "name": "operator",
          "type": "address"
        },
        {
          "indexed": false,
          "internalType": "bool",
          "name": "approved",
          "type": "bool"
        }
      ],
      "name": "ApprovalForAll",
      "type": "event"
    },
    {
      "anonymous": false,
      "inputs": [
        {
          "indexed": false,
          "internalType": "address",
          "name": "_addr",
          "type": "address"
        },
        {
          "indexed": false,
          "internalType": "uint256",
          "name": "_tokenId",
          "type": "uint256"
        },
        {
          "indexed": false,
          "internalType": "string",
          "name": "_tokenURI",
          "type": "string"
        }
      ],
      "name": "ItemMinted",
      "type": "event"
    },
    {
      "anonymous": false,
      "inputs": [
        {
          "indexed": true,
          "internalType": "address",
          "name": "previousOwner",
          "type": "address"
        },
        {
          "indexed": true,
          "internalType": "address",
          "name": "newOwner",
          "type": "address"
        }
      ],
      "name": "OwnershipTransferred",
      "type": "event"
    },
    {
      "anonymous": false,
      "inputs": [
        {
          "indexed": true,
          "internalType": "address",
          "name": "from",
          "type": "address"
        },
        {
          "indexed": true,
          "internalType": "address",
          "name": "to",
          "type": "address"
        },
        {
          "indexed": true,
          "internalType": "uint256",
          "name": "tokenId",
          "type": "uint256"
        }
      ],
      "name": "Transfer",
      "type": "event"
    },
    {
      "anonymous": false,
      "inputs": [
        {
          "indexed": false,
          "internalType": "address",
          "name": "_addr",
          "type": "address"
        }
      ],
      "name": "WhitelistAdded",
      "type": "event"
    },
    {
      "inputs": [
        {
          "internalType": "address",
          "name": "_addr",
          "type": "address"
        }
      ],
      "name": "addToWhitelist",
      "outputs": [],
      "stateMutability": "nonpayable",
      "type": "function"
    },
    {
      "inputs": [
        {
          "internalType": "address",
          "name": "to",
          "type": "address"
        },
        {
          "internalType": "uint256",
          "name": "tokenId",
          "type": "uint256"
        }
      ],
      "name": "approve",
      "outputs": [],
      "stateMutability": "nonpayable",
      "type": "function"
    },
    {
      "inputs": [
        {
          "internalType": "address",
          "name": "owner",
          "type": "address"
        }
      ],
      "name": "balanceOf",
      "outputs": [
        {
          "internalType": "uint256",
          "name": "",
          "type": "uint256"
        }
      ],
      "stateMutability": "view",
      "type": "function"
    },
    {
      "inputs": [
        {
          "internalType": "uint256",
          "name": "tokenId",
          "type": "uint256"
        }
      ],
      "name": "getApproved",
      "outputs": [
        {
          "internalType": "address",
          "name": "",
          "type": "address"
        }
      ],
      "stateMutability": "view",
      "type": "function"
    },
    {
      "inputs": [
        {
          "internalType": "address",
          "name": "owner",
          "type": "address"
        },
        {
          "internalType": "address",
          "name": "operator",
          "type": "address"
        }
      ],
      "name": "isApprovedForAll",
      "outputs": [
        {
          "internalType": "bool",
          "name": "",
          "type": "bool"
        }
      ],
      "stateMutability": "view",
      "type": "function"
    },
    {
      "inputs": [
        {
          "internalType": "string",
          "name": "_tokenURI",
          "type": "string"
        }
      ],
      "name": "mintItem",
      "outputs": [
        {
          "internalType": "uint256",
          "name": "",
          "type": "uint256"
        }
      ],
      "stateMutability": "nonpayable",
      "type": "function"
    },
    {
      "inputs": [],
      "name": "name",
      "outputs": [
        {
          "internalType": "string",
          "name": "",
          "type": "string"
        }
      ],
      "stateMutability": "view",
      "type": "function"
    },
    {
      "inputs": [],
      "name": "owner",
      "outputs": [
        {
          "internalType": "address",
          "name": "",
          "type": "address"
        }
      ],
      "stateMutability": "view",
      "type": "function"
    },
    {
      "inputs": [
        {
          "internalType": "uint256",
          "name": "tokenId",
          "type": "uint256"
        }
      ],
      "name": "ownerOf",
      "outputs": [
        {
          "internalType": "address",
          "name": "",
          "type": "address"
        }
      ],
      "stateMutability": "view",
      "type": "function"
    },
    {
      "inputs": [],
      "name": "renounceOwnership",
      "outputs": [],
      "stateMutability": "nonpayable",
      "type": "function"
    },
    {
      "inputs": [
        {
          "internalType": "address",
          "name": "from",
          "type": "address"
        },
        {
          "internalType": "address",
          "name": "to",
          "type": "address"
        },
        {
          "internalType": "uint256",
          "name": "tokenId",
          "type": "uint256"
        }
      ],
      "name": "safeTransferFrom",
      "outputs": [],
      "stateMutability": "nonpayable",
      "type": "function"
    },
    {
      "inputs": [
        {
          "internalType": "address",
          "name": "from",
          "type": "address"
        },
        {
          "internalType": "address",
          "name": "to",
          "type": "address"
        },
        {
          "internalType": "uint256",
          "name": "tokenId",
          "type": "uint256"
        },
        {
          "internalType": "bytes",
          "name": "data",
          "type": "bytes"
        }
      ],
      "name": "safeTransferFrom",
      "outputs": [],
      "stateMutability": "nonpayable",
      "type": "function"
    },
    {
      "inputs": [
        {
          "internalType": "address",
          "name": "operator",
          "type": "address"
        },
        {
          "internalType": "bool",
          "name": "approved",
          "type": "bool"
        }
      ],
      "name": "setApprovalForAll",
      "outputs": [],
      "stateMutability": "nonpayable",
      "type": "function"
    },
    {
      "inputs": [
        {
          "internalType": "bytes4",
          "name": "interfaceId",
          "type": "bytes4"
        }
      ],
      "name": "supportsInterface",
      "outputs": [
        {
          "internalType": "bool",
          "name": "",
          "type": "bool"
        }
      ],
      "stateMutability": "view",
      "type": "function"
    },
    {
      "inputs": [],
      "name": "symbol",
      "outputs": [
        {
          "internalType": "string",
          "name": "",
          "type": "string"
        }
      ],
      "stateMutability": "view",
      "type": "function"
    },
    {
      "inputs": [
        {
          "internalType": "uint256",
          "name": "index",
          "type": "uint256"
        }
      ],
      "name": "tokenByIndex",
      "outputs": [
        {
          "internalType": "uint256",
          "name": "",
          "type": "uint256"
        }
      ],
      "stateMutability": "view",
      "type": "function"
    },
    {
      "inputs": [],
      "name": "tokenIds",
      "outputs": [
        {
          "internalType": "uint256",
          "name": "_value",
          "type": "uint256"
        }
      ],
      "stateMutability": "view",
      "type": "function"
    },
    {
      "inputs": [
        {
          "internalType": "address",
          "name": "owner",
          "type": "address"
        },
        {
          "internalType": "uint256",
          "name": "index",
          "type": "uint256"
        }
      ],
      "name": "tokenOfOwnerByIndex",
      "outputs": [
        {
          "internalType": "uint256",
          "name": "",
          "type": "uint256"
        }
      ],
      "stateMutability": "view",
      "type": "function"
    },
    {
      "inputs": [
        {
          "internalType": "uint256",
          "name": "tokenId",
          "type": "uint256"
        }
      ],
      "name": "tokenURI",
      "outputs": [
        {
          "internalType": "string",
          "name": "",
          "type": "string"
        }
      ],
      "stateMutability": "view",
      "type": "function"
    },
    {
      "inputs": [],
      "name": "totalSupply",
      "outputs": [
        {
          "internalType": "uint256",
          "name": "",
          "type": "uint256"
        }
      ],
      "stateMutability": "view",
      "type": "function"
    },
    {
      "inputs": [
        {
          "internalType": "address",
          "name": "from",
          "type": "address"
        },
        {
          "internalType": "address",
          "name": "to",
          "type": "address"
        },
        {
          "internalType": "uint256",
          "name": "tokenId",
          "type": "uint256"
        }
      ],
      "name": "transferFrom",
      "outputs": [],
      "stateMutability": "nonpayable",
      "type": "function"
    },
    {
      "inputs": [
        {
          "internalType": "address",
          "name": "newOwner",
          "type": "address"
        }
      ],
      "name": "transferOwnership",
      "outputs": [],
      "stateMutability": "nonpayable",
      "type": "function"
    },
    {
      "inputs": [
        {
          "internalType": "address",
          "name": "",
          "type": "address"
        }
      ],
      "name": "whitelist",
      "outputs": [
        {
          "internalType": "bool",
          "name": "",
          "type": "bool"
        }
      ],
      "stateMutability": "view",
      "type": "function"
    }
  ],
  "bytecode": "0x60806040523480156200001157600080fd5b50604051620040e8380380620040e88339818101604052810190620000379190620002e8565b818181600090816200004a9190620005b8565b5080600190816200005c9190620005b8565b5050506200007f620000736200008760201b60201c565b6200008f60201b60201c565b50506200069f565b600033905090565b6000600b60009054906101000a900473ffffffffffffffffffffffffffffffffffffffff16905081600b60006101000a81548173ffffffffffffffffffffffffffffffffffffffff021916908373ffffffffffffffffffffffffffffffffffffffff1602179055508173ffffffffffffffffffffffffffffffffffffffff168173ffffffffffffffffffffffffffffffffffffffff167f8be0079c531659141344cd1fd0a4f28419497f9722a3daafe3b4186f6b6457e060405160405180910390a35050565b6000604051905090565b600080fd5b600080fd5b600080fd5b600080fd5b6000601f19601f8301169050919050565b7f4e487b7100000000000000000000000000000000000000000000000000000000600052604160045260246000fd5b620001be8262000173565b810181811067ffffffffffffffff82111715620001e057620001df62000184565b5b80604052505050565b6000620001f562000155565b9050620002038282620001b3565b919050565b600067ffffffffffffffff82111562000226576200022562000184565b5b620002318262000173565b9050602081019050919050565b60005b838110156200025e57808201518184015260208101905062000241565b60008484015250505050565b6000620002816200027b8462000208565b620001e9565b905082815260208101848484011115620002a0576200029f6200016e565b5b620002ad8482856200023e565b509392505050565b600082601f830112620002cd57620002cc62000169565b5b8151620002df8482602086016200026a565b91505092915050565b600080604083850312156200030257620003016200015f565b5b600083015167ffffffffffffffff81111562000323576200032262000164565b5b6200033185828601620002b5565b925050602083015167ffffffffffffffff81111562000355576200035462000164565b5b6200036385828601620002b5565b9150509250929050565b600081519050919050565b7f4e487b7100000000000000000000000000000000000000000000000000000000600052602260045260246000fd5b60006002820490506001821680620003c057607f821691505b602082108103620003d657620003d562000378565b5b50919050565b60008190508160005260206000209050919050565b60006020601f8301049050919050565b600082821b905092915050565b600060088302620004407fffffffffffffffffffffffffffffffffffffffffffffffffffffffffffffffff8262000401565b6200044c868362000401565b95508019841693508086168417925050509392505050565b6000819050919050565b6000819050919050565b600062000499620004936200048d8462000464565b6200046e565b62000464565b9050919050565b6000819050919050565b620004b58362000478565b620004cd620004c482620004a0565b8484546200040e565b825550505050565b600090565b620004e4620004d5565b620004f1818484620004aa565b505050565b5b8181101562000519576200050d600082620004da565b600181019050620004f7565b5050565b601f82111562000568576200053281620003dc565b6200053d84620003f1565b810160208510156200054d578190505b620005656200055c85620003f1565b830182620004f6565b50505b505050565b600082821c905092915050565b60006200058d600019846008026200056d565b1980831691505092915050565b6000620005a883836200057a565b9150826002028217905092915050565b620005c3826200036d565b67ffffffffffffffff811115620005df57620005de62000184565b5b620005eb8254620003a7565b620005f88282856200051d565b600060209050601f8311600181146200063057600084156200061b578287015190505b6200062785826200059a565b86555062000697565b601f1984166200064086620003dc565b60005b828110156200066a5784890151825560018201915060208501945060208101905062000643565b868310156200068a578489015162000686601f8916826200057a565b8355505b6001600288020188555050505b505050505050565b613a3980620006af6000396000f3fe608060405234801561001057600080fd5b506004361061014d5760003560e01c8063714cff56116100c3578063b88d4fde1161007c578063b88d4fde146103b2578063c7545849146103ce578063c87b56dd146103fe578063e43252d71461042e578063e985e9c51461044a578063f2fde38b1461047a5761014d565b8063714cff5614610302578063715018a6146103205780638da5cb5b1461032a57806395d89b41146103485780639b19251a14610366578063a22cb465146103965761014d565b806323b872dd1161011557806323b872dd1461020a5780632f745c591461022657806342842e0e146102565780634f6ccce7146102725780636352211e146102a257806370a08231146102d25761014d565b806301ffc9a71461015257806306fdde0314610182578063081812fc146101a0578063095ea7b3146101d057806318160ddd146101ec575b600080fd5b61016c6004803603810190610167919061251c565b610496565b6040516101799190612564565b60405180910390f35b61018a6104a8565b604051610197919061260f565b60405180910390f35b6101ba60048036038101906101b59190612667565b61053a565b6040516101c791906126d5565b60405180910390f35b6101ea60048036038101906101e5919061271c565b610580565b005b6101f4610697565b604051610201919061276b565b60405180910390f35b610224600480360381019061021f9190612786565b6106a4565b005b610240600480360381019061023b919061271c565b610704565b60405161024d919061276b565b60405180910390f35b610270600480360381019061026b9190612786565b6107a9565b005b61028c60048036038101906102879190612667565b6107c9565b604051610299919061276b565b60405180910390f35b6102bc60048036038101906102b79190612667565b61083a565b6040516102c991906126d5565b60405180910390f35b6102ec60048036038101906102e791906127d9565b6108c0565b6040516102f9919061276b565b60405180910390f35b61030a610977565b604051610317919061276b565b60405180910390f35b610328610983565b005b610332610997565b60405161033f91906126d5565b60405180910390f35b6103506109c1565b60405161035d919061260f565b60405180910390f35b610380600480360381019061037b91906127d9565b610a53565b60405161038d9190612564565b60405180910390f35b6103b060048036038101906103ab9190612832565b610a73565b005b6103cc60048036038101906103c791906129a7565b610a89565b005b6103e860048036038101906103e39190612acb565b610aeb565b6040516103f5919061276b565b60405180910390f35b61041860048036038101906104139190612667565b610bfe565b604051610425919061260f565b60405180910390f35b610448600480360381019061044391906127d9565b610c10565b005b610464600480360381019061045f9190612b14565b610caa565b6040516104719190612564565b60405180910390f35b610494600480360381019061048f91906127d9565b610d3e565b005b60006104a182610dc1565b9050919050565b6060600080546104b790612b83565b80601f01602080910402602001604051908101604052809291908181526020018280546104e390612b83565b80156105305780601f1061050557610100808354040283529160200191610530565b820191906000526020600020905b81548152906001019060200180831161051357829003601f168201915b5050505050905090565b600061054582610e3b565b6004600083815260200190815260200160002060009054906101000a900473ffffffffffffffffffffffffffffffffffffffff169050919050565b600061058b8261083a565b90508073ffffffffffffffffffffffffffffffffffffffff168373ffffffffffffffffffffffffffffffffffffffff16036105fb576040517f08c379a00000000000000000000000000000000000000000000000000000000081526004016105f290612c26565b60405180910390fd5b8073ffffffffffffffffffffffffffffffffffffffff1661061a610e86565b73ffffffffffffffffffffffffffffffffffffffff161480610649575061064881610643610e86565b610caa565b5b610688576040517f08c379a000000000000000000000000000000000000000000000000000000000815260040161067f90612cb8565b60405180910390fd5b6106928383610e8e565b505050565b6000600880549050905090565b6106b56106af610e86565b82610f47565b6106f4576040517f08c379a00000000000000000000000000000000000000000000000000000000081526004016106eb90612d4a565b60405180910390fd5b6106ff838383610fdc565b505050565b600061070f836108c0565b8210610750576040517f08c379a000000000000000000000000000000000000000000000000000000000815260040161074790612ddc565b60405180910390fd5b600660008473ffffffffffffffffffffffffffffffffffffffff1673ffffffffffffffffffffffffffffffffffffffff168152602001908152602001600020600083815260200190815260200160002054905092915050565b6107c483838360405180602001604052806000815250610a89565b505050565b60006107d3610697565b8210610814576040517f08c379a000000000000000000000000000000000000000000000000000000000815260040161080b90612e6e565b60405180910390fd5b6008828154811061082857610827612e8e565b5b90600052602060002001549050919050565b600080610846836112d5565b9050600073ffffffffffffffffffffffffffffffffffffffff168173ffffffffffffffffffffffffffffffffffffffff16036108b7576040517f08c379a00000000000000000000000000000000000000000000000000000000081526004016108ae90612f09565b60405180910390fd5b80915050919050565b60008073ffffffffffffffffffffffffffffffffffffffff168273ffffffffffffffffffffffffffffffffffffffff1603610930576040517f08c379a000000000000000000000000000000000000000000000000000000000815260040161092790612f9b565b60405180910390fd5b600360008373ffffffffffffffffffffffffffffffffffffffff1673ffffffffffffffffffffffffffffffffffffffff168152602001908152602001600020549050919050565b600c8060000154905081565b61098b611312565b6109956000611390565b565b6000600b60009054906101000a900473ffffffffffffffffffffffffffffffffffffffff16905090565b6060600180546109d090612b83565b80601f01602080910402602001604051908101604052809291908181526020018280546109fc90612b83565b8015610a495780601f10610a1e57610100808354040283529160200191610a49565b820191906000526020600020905b815481529060010190602001808311610a2c57829003601f168201915b5050505050905090565b600d6020528060005260406000206000915054906101000a900460ff1681565b610a85610a7e610e86565b8383611456565b5050565b610a9a610a94610e86565b83610f47565b610ad9576040517f08c379a0000000000000000000000000000000000000000000000000000000008152600401610ad090612d4a565b60405180910390fd5b610ae5848484846115c2565b50505050565b6000600d60003373ffffffffffffffffffffffffffffffffffffffff1673ffffffffffffffffffffffffffffffffffffffff16815260200190815260200160002060009054906101000a900460ff16610b79576040517f08c379a0000000000000000000000000000000000000000000000000000000008152600401610b7090613007565b60405180910390fd5b610b83600c61161e565b610b9633610b91600c611634565b611642565b610ba9610ba3600c611634565b83611660565b7f9aad673c07866c8b5f7049a3b0a7e8091c80c3685b33244faf2bb621f050fdd733610bd5600c611634565b84604051610be593929190613027565b60405180910390a1610bf7600c611634565b9050919050565b6060610c09826116cd565b9050919050565b610c18611312565b6001600d60008373ffffffffffffffffffffffffffffffffffffffff1673ffffffffffffffffffffffffffffffffffffffff16815260200190815260200160002060006101000a81548160ff0219169083151502179055507f4790a4adb426ca2345bb5108f6e454eae852a7bf687544cd66a7270dff3a41d681604051610c9f91906126d5565b60405180910390a150565b6000600560008473ffffffffffffffffffffffffffffffffffffffff1673ffffffffffffffffffffffffffffffffffffffff16815260200190815260200160002060008373ffffffffffffffffffffffffffffffffffffffff1673ffffffffffffffffffffffffffffffffffffffff16815260200190815260200160002060009054906101000a900460ff16905092915050565b610d46611312565b600073ffffffffffffffffffffffffffffffffffffffff168173ffffffffffffffffffffffffffffffffffffffff1603610db5576040517f08c379a0000000000000000000000000000000000000000000000000000000008152600401610dac906130d7565b60405180910390fd5b610dbe81611390565b50565b60007f780e9d63000000000000000000000000000000000000000000000000000000007bffffffffffffffffffffffffffffffffffffffffffffffffffffffff1916827bffffffffffffffffffffffffffffffffffffffffffffffffffffffff19161480610e345750610e33826117df565b5b9050919050565b610e44816118c1565b610e83576040517f08c379a0000000000000000000000000000000000000000000000000000000008152600401610e7a90612f09565b60405180910390fd5b50565b600033905090565b816004600083815260200190815260200160002060006101000a81548173ffffffffffffffffffffffffffffffffffffffff021916908373ffffffffffffffffffffffffffffffffffffffff160217905550808273ffffffffffffffffffffffffffffffffffffffff16610f018361083a565b73ffffffffffffffffffffffffffffffffffffffff167f8c5be1e5ebec7d5bd14f71427d1e84f3dd0314c0f7b2291e5b200ac8c7c3b92560405160405180910390a45050565b600080610f538361083a565b90508073ffffffffffffffffffffffffffffffffffffffff168473ffffffffffffffffffffffffffffffffffffffff161480610f955750610f948185610caa565b5b80610fd357508373ffffffffffffffffffffffffffffffffffffffff16610fbb8461053a565b73ffffffffffffffffffffffffffffffffffffffff16145b91505092915050565b8273ffffffffffffffffffffffffffffffffffffffff16610ffc8261083a565b73ffffffffffffffffffffffffffffffffffffffff1614611052576040517f08c379a000000000000000000000000000000000000000000000000000000000815260040161104990613169565b60405180910390fd5b600073ffffffffffffffffffffffffffffffffffffffff168273ffffffffffffffffffffffffffffffffffffffff16036110c1576040517f08c379a00000000000000000000000000000000000000000000000000000000081526004016110b8906131fb565b60405180910390fd5b6110ce8383836001611902565b8273ffffffffffffffffffffffffffffffffffffffff166110ee8261083a565b73ffffffffffffffffffffffffffffffffffffffff1614611144576040517f08c379a000000000000000000000000000000000000000000000000000000000815260040161113b90613169565b60405180910390fd5b6004600082815260200190815260200160002060006101000a81549073ffffffffffffffffffffffffffffffffffffffff02191690556001600360008573ffffffffffffffffffffffffffffffffffffffff1673ffffffffffffffffffffffffffffffffffffffff168152602001908152602001600020600082825403925050819055506001600360008473ffffffffffffffffffffffffffffffffffffffff1673ffffffffffffffffffffffffffffffffffffffff16815260200190815260200160002060008282540192505081905550816002600083815260200190815260200160002060006101000a81548173ffffffffffffffffffffffffffffffffffffffff021916908373ffffffffffffffffffffffffffffffffffffffff160217905550808273ffffffffffffffffffffffffffffffffffffffff168473ffffffffffffffffffffffffffffffffffffffff167fddf252ad1be2c89b69c2b068fc378daa952ba7f163c4a11628f55a4df523b3ef60405160405180910390a46112d08383836001611914565b505050565b60006002600083815260200190815260200160002060009054906101000a900473ffffffffffffffffffffffffffffffffffffffff169050919050565b61131a610e86565b73ffffffffffffffffffffffffffffffffffffffff16611338610997565b73ffffffffffffffffffffffffffffffffffffffff161461138e576040517f08c379a000000000000000000000000000000000000000000000000000000000815260040161138590613267565b60405180910390fd5b565b6000600b60009054906101000a900473ffffffffffffffffffffffffffffffffffffffff16905081600b60006101000a81548173ffffffffffffffffffffffffffffffffffffffff021916908373ffffffffffffffffffffffffffffffffffffffff1602179055508173ffffffffffffffffffffffffffffffffffffffff168173ffffffffffffffffffffffffffffffffffffffff167f8be0079c531659141344cd1fd0a4f28419497f9722a3daafe3b4186f6b6457e060405160405180910390a35050565b8173ffffffffffffffffffffffffffffffffffffffff168373ffffffffffffffffffffffffffffffffffffffff16036114c4576040517f08c379a00000000000000000000000000000000000000000000000000000000081526004016114bb906132d3565b60405180910390fd5b80600560008573ffffffffffffffffffffffffffffffffffffffff1673ffffffffffffffffffffffffffffffffffffffff16815260200190815260200160002060008473ffffffffffffffffffffffffffffffffffffffff1673ffffffffffffffffffffffffffffffffffffffff16815260200190815260200160002060006101000a81548160ff0219169083151502179055508173ffffffffffffffffffffffffffffffffffffffff168373ffffffffffffffffffffffffffffffffffffffff167f17307eab39ab6107e8899845ad3d59bd9653f200f220920489ca2b5937696c31836040516115b59190612564565b60405180910390a3505050565b6115cd848484610fdc565b6115d98484848461191a565b611618576040517f08c379a000000000000000000000000000000000000000000000000000000000815260040161160f90613365565b60405180910390fd5b50505050565b6001816000016000828254019250508190555050565b600081600001549050919050565b61165c828260405180602001604052806000815250611aa1565b5050565b611669826118c1565b6116a8576040517f08c379a000000000000000000000000000000000000000000000000000000000815260040161169f906133f7565b60405180910390fd5b80600a600084815260200190815260200160002090816116c891906135c3565b505050565b60606116d882610e3b565b6000600a600084815260200190815260200160002080546116f890612b83565b80601f016020809104026020016040519081016040528092919081815260200182805461172490612b83565b80156117715780601f1061174657610100808354040283529160200191611771565b820191906000526020600020905b81548152906001019060200180831161175457829003601f168201915b505050505090506000611782611afc565b905060008151036117975781925050506117da565b6000825111156117cc5780826040516020016117b49291906136d1565b604051602081830303815290604052925050506117da565b6117d584611b13565b925050505b919050565b60007f80ac58cd000000000000000000000000000000000000000000000000000000007bffffffffffffffffffffffffffffffffffffffffffffffffffffffff1916827bffffffffffffffffffffffffffffffffffffffffffffffffffffffff191614806118aa57507f5b5e139f000000000000000000000000000000000000000000000000000000007bffffffffffffffffffffffffffffffffffffffffffffffffffffffff1916827bffffffffffffffffffffffffffffffffffffffffffffffffffffffff1916145b806118ba57506118b982611b7b565b5b9050919050565b60008073ffffffffffffffffffffffffffffffffffffffff166118e3836112d5565b73ffffffffffffffffffffffffffffffffffffffff1614159050919050565b61190e84848484611be5565b50505050565b50505050565b600061193b8473ffffffffffffffffffffffffffffffffffffffff16611d43565b15611a94578373ffffffffffffffffffffffffffffffffffffffff1663150b7a02611964610e86565b8786866040518563ffffffff1660e01b8152600401611986949392919061374a565b6020604051808303816000875af19250505080156119c257506040513d601f19601f820116820180604052508101906119bf91906137ab565b60015b611a44573d80600081146119f2576040519150601f19603f3d011682016040523d82523d6000602084013e6119f7565b606091505b506000815103611a3c576040517f08c379a0000000000000000000000000000000000000000000000000000000008152600401611a3390613365565b60405180910390fd5b805181602001fd5b63150b7a0260e01b7bffffffffffffffffffffffffffffffffffffffffffffffffffffffff1916817bffffffffffffffffffffffffffffffffffffffffffffffffffffffff191614915050611a99565b600190505b949350505050565b611aab8383611d66565b611ab8600084848461191a565b611af7576040517f08c379a0000000000000000000000000000000000000000000000000000000008152600401611aee90613365565b60405180910390fd5b505050565b606060405180602001604052806000815250905090565b6060611b1e82610e3b565b6000611b28611afc565b90506000815111611b485760405180602001604052806000815250611b73565b80611b5284611f83565b604051602001611b639291906136d1565b6040516020818303038152906040525b915050919050565b60007f01ffc9a7000000000000000000000000000000000000000000000000000000007bffffffffffffffffffffffffffffffffffffffffffffffffffffffff1916827bffffffffffffffffffffffffffffffffffffffffffffffffffffffff1916149050919050565b611bf184848484612051565b6001811115611c35576040517f08c379a0000000000000000000000000000000000000000000000000000000008152600401611c2c9061384a565b60405180910390fd5b6000829050600073ffffffffffffffffffffffffffffffffffffffff168573ffffffffffffffffffffffffffffffffffffffff1603611c7c57611c7781612057565b611cbb565b8373ffffffffffffffffffffffffffffffffffffffff168573ffffffffffffffffffffffffffffffffffffffff1614611cba57611cb985826120a0565b5b5b600073ffffffffffffffffffffffffffffffffffffffff168473ffffffffffffffffffffffffffffffffffffffff1603611cfd57611cf88161220d565b611d3c565b8473ffffffffffffffffffffffffffffffffffffffff168473ffffffffffffffffffffffffffffffffffffffff1614611d3b57611d3a84826122de565b5b5b5050505050565b6000808273ffffffffffffffffffffffffffffffffffffffff163b119050919050565b600073ffffffffffffffffffffffffffffffffffffffff168273ffffffffffffffffffffffffffffffffffffffff1603611dd5576040517f08c379a0000000000000000000000000000000000000000000000000000000008152600401611dcc906138b6565b60405180910390fd5b611dde816118c1565b15611e1e576040517f08c379a0000000000000000000000000000000000000000000000000000000008152600401611e1590613922565b60405180910390fd5b611e2c600083836001611902565b611e35816118c1565b15611e75576040517f08c379a0000000000000000000000000000000000000000000000000000000008152600401611e6c90613922565b60405180910390fd5b6001600360008473ffffffffffffffffffffffffffffffffffffffff1673ffffffffffffffffffffffffffffffffffffffff16815260200190815260200160002060008282540192505081905550816002600083815260200190815260200160002060006101000a81548173ffffffffffffffffffffffffffffffffffffffff021916908373ffffffffffffffffffffffffffffffffffffffff160217905550808273ffffffffffffffffffffffffffffffffffffffff16600073ffffffffffffffffffffffffffffffffffffffff167fddf252ad1be2c89b69c2b068fc378daa952ba7f163c4a11628f55a4df523b3ef60405160405180910390a4611f7f600083836001611914565b5050565b606060006001611f928461235d565b01905060008167ffffffffffffffff811115611fb157611fb061287c565b5b6040519080825280601f01601f191660200182016040528015611fe35781602001600182028036833780820191505090505b509050600082602001820190505b600115612046578080600190039150507f3031323334353637383961626364656600000000000000000000000000000000600a86061a8153600a858161203a57612039613942565b5b04945060008503611ff1575b819350505050919050565b50505050565b6008805490506009600083815260200190815260200160002081905550600881908060018154018082558091505060019003906000526020600020016000909190919091505550565b600060016120ad846108c0565b6120b791906139a0565b905060006007600084815260200190815260200160002054905081811461219c576000600660008673ffffffffffffffffffffffffffffffffffffffff1673ffffffffffffffffffffffffffffffffffffffff168152602001908152602001600020600084815260200190815260200160002054905080600660008773ffffffffffffffffffffffffffffffffffffffff1673ffffffffffffffffffffffffffffffffffffffff168152602001908152602001600020600084815260200190815260200160002081905550816007600083815260200190815260200160002081905550505b6007600084815260200190815260200160002060009055600660008573ffffffffffffffffffffffffffffffffffffffff1673ffffffffffffffffffffffffffffffffffffffff16815260200190815260200160002060008381526020019081526020016000206000905550505050565b6000600160088054905061222191906139a0565b905060006009600084815260200190815260200160002054905060006008838154811061225157612250612e8e565b5b90600052602060002001549050806008838154811061227357612272612e8e565b5b9060005260206000200181905550816009600083815260200190815260200160002081905550600960008581526020019081526020016000206000905560088054806122c2576122c16139d4565b5b6001900381819060005260206000200160009055905550505050565b60006122e9836108c0565b905081600660008573ffffffffffffffffffffffffffffffffffffffff1673ffffffffffffffffffffffffffffffffffffffff168152602001908152602001600020600083815260200190815260200160002081905550806007600084815260200190815260200160002081905550505050565b600080600090507a184f03e93ff9f4daa797ed6e38ed64bf6a1f01000000000000000083106123bb577a184f03e93ff9f4daa797ed6e38ed64bf6a1f01000000000000000083816123b1576123b0613942565b5b0492506040810190505b6d04ee2d6d415b85acef810000000083106123f8576d04ee2d6d415b85acef810000000083816123ee576123ed613942565b5b0492506020810190505b662386f26fc10000831061242757662386f26fc10000838161241d5761241c613942565b5b0492506010810190505b6305f5e1008310612450576305f5e100838161244657612445613942565b5b0492506008810190505b612710831061247557612710838161246b5761246a613942565b5b0492506004810190505b60648310612498576064838161248e5761248d613942565b5b0492506002810190505b600a83106124a7576001810190505b80915050919050565b6000604051905090565b600080fd5b600080fd5b60007fffffffff0000000000000000000000000000000000000000000000000000000082169050919050565b6124f9816124c4565b811461250457600080fd5b50565b600081359050612516816124f0565b92915050565b600060208284031215612532576125316124ba565b5b600061254084828501612507565b91505092915050565b60008115159050919050565b61255e81612549565b82525050565b60006020820190506125796000830184612555565b92915050565b600081519050919050565b600082825260208201905092915050565b60005b838110156125b957808201518184015260208101905061259e565b60008484015250505050565b6000601f19601f8301169050919050565b60006125e18261257f565b6125eb818561258a565b93506125fb81856020860161259b565b612604816125c5565b840191505092915050565b6000602082019050818103600083015261262981846125d6565b905092915050565b6000819050919050565b61264481612631565b811461264f57600080fd5b50565b6000813590506126618161263b565b92915050565b60006020828403121561267d5761267c6124ba565b5b600061268b84828501612652565b91505092915050565b600073ffffffffffffffffffffffffffffffffffffffff82169050919050565b60006126bf82612694565b9050919050565b6126cf816126b4565b82525050565b60006020820190506126ea60008301846126c6565b92915050565b6126f9816126b4565b811461270457600080fd5b50565b600081359050612716816126f0565b92915050565b60008060408385031215612733576127326124ba565b5b600061274185828601612707565b925050602061275285828601612652565b9150509250929050565b61276581612631565b82525050565b6000602082019050612780600083018461275c565b92915050565b60008060006060848603121561279f5761279e6124ba565b5b60006127ad86828701612707565b93505060206127be86828701612707565b92505060406127cf86828701612652565b9150509250925092565b6000602082840312156127ef576127ee6124ba565b5b60006127fd84828501612707565b91505092915050565b61280f81612549565b811461281a57600080fd5b50565b60008135905061282c81612806565b92915050565b60008060408385031215612849576128486124ba565b5b600061285785828601612707565b92505060206128688582860161281d565b9150509250929050565b600080fd5b600080fd5b7f4e487b7100000000000000000000000000000000000000000000000000000000600052604160045260246000fd5b6128b4826125c5565b810181811067ffffffffffffffff821117156128d3576128d261287c565b5b80604052505050565b60006128e66124b0565b90506128f282826128ab565b919050565b600067ffffffffffffffff8211156129125761291161287c565b5b61291b826125c5565b9050602081019050919050565b82818337600083830152505050565b600061294a612945846128f7565b6128dc565b90508281526020810184848401111561296657612965612877565b5b612971848285612928565b509392505050565b600082601f83011261298e5761298d612872565b5b813561299e848260208601612937565b91505092915050565b600080600080608085870312156129c1576129c06124ba565b5b60006129cf87828801612707565b94505060206129e087828801612707565b93505060406129f187828801612652565b925050606085013567ffffffffffffffff811115612a1257612a116124bf565b5b612a1e87828801612979565b91505092959194509250565b600067ffffffffffffffff821115612a4557612a4461287c565b5b612a4e826125c5565b9050602081019050919050565b6000612a6e612a6984612a2a565b6128dc565b905082815260208101848484011115612a8a57612a89612877565b5b612a95848285612928565b509392505050565b600082601f830112612ab257612ab1612872565b5b8135612ac2848260208601612a5b565b91505092915050565b600060208284031215612ae157612ae06124ba565b5b600082013567ffffffffffffffff811115612aff57612afe6124bf565b5b612b0b84828501612a9d565b91505092915050565b60008060408385031215612b2b57612b2a6124ba565b5b6000612b3985828601612707565b9250506020612b4a85828601612707565b9150509250929050565b7f4e487b7100000000000000000000000000000000000000000000000000000000600052602260045260246000fd5b60006002820490506001821680612b9b57607f821691505b602082108103612bae57612bad612b54565b5b50919050565b7f4552433732313a20617070726f76616c20746f2063757272656e74206f776e6560008201527f7200000000000000000000000000000000000000000000000000000000000000602082015250565b6000612c1060218361258a565b9150612c1b82612bb4565b604082019050919050565b60006020820190508181036000830152612c3f81612c03565b9050919050565b7f4552433732313a20617070726f76652063616c6c6572206973206e6f7420746f60008201527f6b656e206f776e6572206f7220617070726f76656420666f7220616c6c000000602082015250565b6000612ca2603d8361258a565b9150612cad82612c46565b604082019050919050565b60006020820190508181036000830152612cd181612c95565b9050919050565b7f4552433732313a2063616c6c6572206973206e6f7420746f6b656e206f776e6560008201527f72206f7220617070726f76656400000000000000000000000000000000000000602082015250565b6000612d34602d8361258a565b9150612d3f82612cd8565b604082019050919050565b60006020820190508181036000830152612d6381612d27565b9050919050565b7f455243373231456e756d657261626c653a206f776e657220696e646578206f7560008201527f74206f6620626f756e6473000000000000000000000000000000000000000000602082015250565b6000612dc6602b8361258a565b9150612dd182612d6a565b604082019050919050565b60006020820190508181036000830152612df581612db9565b9050919050565b7f455243373231456e756d657261626c653a20676c6f62616c20696e646578206f60008201527f7574206f6620626f756e64730000000000000000000000000000000000000000602082015250565b6000612e58602c8361258a565b9150612e6382612dfc565b604082019050919050565b60006020820190508181036000830152612e8781612e4b565b9050919050565b7f4e487b7100000000000000000000000000000000000000000000000000000000600052603260045260246000fd5b7f4552433732313a20696e76616c696420746f6b656e2049440000000000000000600082015250565b6000612ef360188361258a565b9150612efe82612ebd565b602082019050919050565b60006020820190508181036000830152612f2281612ee6565b9050919050565b7f4552433732313a2061646472657373207a65726f206973206e6f74206120766160008201527f6c6964206f776e65720000000000000000000000000000000000000000000000602082015250565b6000612f8560298361258a565b9150612f9082612f29565b604082019050919050565b60006020820190508181036000830152612fb481612f78565b9050919050565b7f4e6f7420417574686f72697a6564000000000000000000000000000000000000600082015250565b6000612ff1600e8361258a565b9150612ffc82612fbb565b602082019050919050565b6000602082019050818103600083015261302081612fe4565b9050919050565b600060608201905061303c60008301866126c6565b613049602083018561275c565b818103604083015261305b81846125d6565b9050949350505050565b7f4f776e61626c653a206e6577206f776e657220697320746865207a65726f206160008201527f6464726573730000000000000000000000000000000000000000000000000000602082015250565b60006130c160268361258a565b91506130cc82613065565b604082019050919050565b600060208201905081810360008301526130f0816130b4565b9050919050565b7f4552433732313a207472616e736665722066726f6d20696e636f72726563742060008201527f6f776e6572000000000000000000000000000000000000000000000000000000602082015250565b600061315360258361258a565b915061315e826130f7565b604082019050919050565b6000602082019050818103600083015261318281613146565b9050919050565b7f4552433732313a207472616e7366657220746f20746865207a65726f2061646460008201527f7265737300000000000000000000000000000000000000000000000000000000602082015250565b60006131e560248361258a565b91506131f082613189565b604082019050919050565b60006020820190508181036000830152613214816131d8565b9050919050565b7f4f776e61626c653a2063616c6c6572206973206e6f7420746865206f776e6572600082015250565b600061325160208361258a565b915061325c8261321b565b602082019050919050565b6000602082019050818103600083015261328081613244565b9050919050565b7f4552433732313a20617070726f766520746f2063616c6c657200000000000000600082015250565b60006132bd60198361258a565b91506132c882613287565b602082019050919050565b600060208201905081810360008301526132ec816132b0565b9050919050565b7f4552433732313a207472616e7366657220746f206e6f6e20455243373231526560008201527f63656976657220696d706c656d656e7465720000000000000000000000000000602082015250565b600061334f60328361258a565b915061335a826132f3565b604082019050919050565b6000602082019050818103600083015261337e81613342565b9050919050565b7f45524337323155524953746f726167653a2055524920736574206f66206e6f6e60008201527f6578697374656e7420746f6b656e000000000000000000000000000000000000602082015250565b60006133e1602e8361258a565b91506133ec82613385565b604082019050919050565b60006020820190508181036000830152613410816133d4565b9050919050565b60008190508160005260206000209050919050565b60006020601f8301049050919050565b600082821b905092915050565b6000600883026134797fffffffffffffffffffffffffffffffffffffffffffffffffffffffffffffffff8261343c565b613483868361343c565b95508019841693508086168417925050509392505050565b6000819050919050565b60006134c06134bb6134b684612631565b61349b565b612631565b9050919050565b6000819050919050565b6134da836134a5565b6134ee6134e6826134c7565b848454613449565b825550505050565b600090565b6135036134f6565b61350e8184846134d1565b505050565b5b81811015613532576135276000826134fb565b600181019050613514565b5050565b601f8211156135775761354881613417565b6135518461342c565b81016020851015613560578190505b61357461356c8561342c565b830182613513565b50505b505050565b600082821c905092915050565b600061359a6000198460080261357c565b1980831691505092915050565b60006135b38383613589565b9150826002028217905092915050565b6135cc8261257f565b67ffffffffffffffff8111156135e5576135e461287c565b5b6135ef8254612b83565b6135fa828285613536565b600060209050601f83116001811461362d576000841561361b578287015190505b61362585826135a7565b86555061368d565b601f19841661363b86613417565b60005b828110156136635784890151825560018201915060208501945060208101905061363e565b86831015613680578489015161367c601f891682613589565b8355505b6001600288020188555050505b505050505050565b600081905092915050565b60006136ab8261257f565b6136b58185613695565b93506136c581856020860161259b565b80840191505092915050565b60006136dd82856136a0565b91506136e982846136a0565b91508190509392505050565b600081519050919050565b600082825260208201905092915050565b600061371c826136f5565b6137268185613700565b935061373681856020860161259b565b61373f816125c5565b840191505092915050565b600060808201905061375f60008301876126c6565b61376c60208301866126c6565b613779604083018561275c565b818103606083015261378b8184613711565b905095945050505050565b6000815190506137a5816124f0565b92915050565b6000602082840312156137c1576137c06124ba565b5b60006137cf84828501613796565b91505092915050565b7f455243373231456e756d657261626c653a20636f6e736563757469766520747260008201527f616e7366657273206e6f7420737570706f727465640000000000000000000000602082015250565b600061383460358361258a565b915061383f826137d8565b604082019050919050565b6000602082019050818103600083015261386381613827565b9050919050565b7f4552433732313a206d696e7420746f20746865207a65726f2061646472657373600082015250565b60006138a060208361258a565b91506138ab8261386a565b602082019050919050565b600060208201905081810360008301526138cf81613893565b9050919050565b7f4552433732313a20746f6b656e20616c7265616479206d696e74656400000000600082015250565b600061390c601c8361258a565b9150613917826138d6565b602082019050919050565b6000602082019050818103600083015261393b816138ff565b9050919050565b7f4e487b7100000000000000000000000000000000000000000000000000000000600052601260045260246000fd5b7f4e487b7100000000000000000000000000000000000000000000000000000000600052601160045260246000fd5b60006139ab82612631565b91506139b683612631565b92508282039050818111156139ce576139cd613971565b5b92915050565b7f4e487b7100000000000000000000000000000000000000000000000000000000600052603160045260246000fdfea2646970667358221220e6d5e7fdaeb7634d800b8d8f232c07f6b4d35f17b01db0a8c036f36f9e87412564736f6c63430008130033",
  "linkReferences": {},
  "deployedLinkReferences": {}
}